:0200000460009A
:10000000464346420004015600000000010303007D
:1000100000000000000000000000000000000000E0
:1000200000000000000000000000000000000000D0
:1000300000000000000000000000000000000000C0
:1000400000000000000406000000000000000000A6
:100050000000800000000000000000000000000020
:100060000000000000000000000000000000000090
:100070000000000000000000000000000000000080
:10008000EB04180A063204260000000000000000FD
:100090000000000000000000000000000000000060
:1000A0000000000000000000000000000000000050
:1000B0000000000000000000000000000000000040
:1000C0000000000000000000000000000000000030
:1000D0000000000000000000000000000000000020
:1000E0000000000000000000000000000000000010
:1000F0000000000000000000000000000000000000
:1001000000000000000000000000000000000000EF
:1001100000000000000000000000000000000000DF
:1001200000000000000000000000000000000000CF
:1001300000000000000000000000000000000000BF
:1001400000000000000000000000000000000000AF
:10015000000000000000000000000000000000009F
:10016000000000000000000000000000000000008F
:10017000000000000000000000000000000000007F
:10018000000000000000000000000000000000006F
:10019000000000000000000000000000000000005F
:1001A000000000000000000000000000000000004F
:1001B000000000000000000000000000000000003F
:1001C000000100000010000000000000000000001E
:1001D000000004000000000000000000000000001B
:1001E000000000000000000000000000000000000F
:1001F00000000000000000000000000000000000FF
:1002000000000000000000000000000000000000EE
:1002100000000000000000000000000000000000DE
:10100000D10020410020006000000000000000002E
:1010100020100060001000600000000000000000D0
:1010200000000060CCB8020000000000FFFFFFFFDE
:1010300000000000000000000000000000000000B0
:1010400000000000000000000000000000000000A0
:101050000000000000000000000000000000000090
:101060000000000000000000000000000000000080
:10200000001C2920BD55006053860160A955006061
:10201000A9550060A9550060A955006000000000A6
:10202000000000000000000000000000C556006035
:10203000A95500600000000091560060A173006087
:1020400035580060355800603558006035580060DC
:1020500035580060355800603558006035580060CC
:1020600035580060355800603558006035580060BC
:1020700035580060355800603558006035580060AC
:1022C00053B94AB9002908BF00281CBF4FF0FF319D
:1022D0004FF0FF3000F00CB8ADF1080C6DE904CE02
:1022E00000F008F8DDF804E0DDE9022304B07047EF
:1022F000704700BF2DE9F04786468C460846089E89
:10230000154674461946002B40F0C2808542B2FA49
:1023100082F245D94AB1C2F1200300FA02FC2EFA3A
:1023200003F3954043EA0C0C94404FEA154EA8B2D3
:10233000BCFBFEF8230C0EFB18CC08FB00F943EAAB
:102340000C43994528D9EB1808F1FF3704D2994579
:1023500002D9A8F102072B44A3EB0903A4B2B3FBF3
:10236000FEFC0EFB1C330CFB00F044EA0344A042CD
:1023700014D92C190CF1FF3304D2A04202D9ACF1CC
:1023800002032C44241A43EA07401EB1D440002320
:1023900034607360BDE8F0874746DDE76346F1E7E8
:1023A00092BB431B01214FEA154EAFB2B3FBFEFCBB
:1023B000200C0EFB1C330CFB07F840EA0343984546
:1023C00062D9EB180CF1FF3004D2984502D9ACF178
:1023D00002002B44A3EB0803A4B2B3FBFEFC0EFBEC
:1023E0001C330CFB07F744EA0344A7424ED92C19CF
:1023F0000CF1FF3304D2A74202D9ACF102032C4402
:10240000E41B43EA0040C0E7C2F1200320FA03F1D5
:10241000954090402EFA03F303434FEA154EAFB2B6
:10242000B1FBFEFC0EFB1C10190C0CFB07F841EA7B
:102430000041884504FA02F422D969180CF1FF30F2
:1024400004D2884502D9ACF102002944A1EB08016D
:102450009BB2B1FBFEFC0EFB1C110CFB07F743EA21
:1024600001439F420ED9EB180CF1FF3104D29F4279
:1024700002D9ACF102012B44DB1B41EA004192E797
:102480006046E3E76146F7E76046A3E76346B7E7E0
:10249000834206D916B9002108467BE7C6E900E069
:1024A000F9E7B3FA83F78FB9834201D3724508D8AD
:1024B000BEEB020460EB030301209C461EB9002121
:1024C00068E73846FAE7C6E9004CF8E7C7F1200CA0
:1024D000BB4022FA0CF41C432EFA0CF120FA0CF348
:1024E000B84001434FEA14490EFA07F5B3FBF9F877
:1024F0001FFA84FE09FB18300B0C08FB0EFA43EAA6
:1025000000439A4502FA07F240D9E31808F1FF3078
:1025100004D29A4502D9A8F102002344A3EB0A038E
:1025200089B2B3FBF9F809FB183308FB0EFE41EA48
:1025300003418E452CD9611808F1FF3304D28E4532
:1025400002D9A8F10203214443EA0040A0FB02980B
:10255000A1EB0E014145CE46434602D306D14D457F
:1025600004D2B9EB020E68EB04030138002EA6D0AA
:10257000B5EB0E0261EB030101FA0CFC22FA07F342
:102580004CEA0303F940C6E9003198E74046C5E745
:102590004346D9E710F8012B11F8013B012A28BF67
:1025A0009A42F7D0D01A7047034611F8012B03F86E
:1025B000012B002AF9D17047034613F8012B002A9A
:1025C000FBD1181A013870472DE9F04F85B08846C5
:1025D00043490292026E0190C2F3C2628A5CB3FB6D
:1025E000F2F6029B3246032B4FF000033DD101244B
:1025F00035A1D1E90001FFF763FE324607468A465E
:10260000002333A1D1E90001FFF75AFE05464745F3
:102610007AF1000A39D2334B01344FF0FF3B4FF0CF
:10262000FF09A4FB034A00270393324600232046F8
:102630005146FFF745FE4045034607F1010271F19F
:10264000000103D3A0EB080058452AD3B2F5807FE0
:1026500024D0039B58464F46E4182B464AF1000A03
:10266000B946834617461D46DFE71BA1D1E90001A5
:10267000FFF726FE324607468A4600231A483B21CA
:102680000024FFF71DFE0546C1E701980021029ACC
:1026900016F02DFF384605B0BDE8F08F4F462B46AB
:1026A00008E0B2F5807F05D0039964184AF1000A6A
:1026B0000028D5D101983946029A039316F017FFE6
:1026C000039B1846E7E700BF009435770000000041
:1026D00000CA64D63B00000000CA9A3B000000001C
:1026E000155F026000CA9A3B0000CA9A014B0022A3
:1026F0001A607047B4F128207FB55B4A03215B481C
:1027000015F076FD0023CDE90133CDF80B305848A4
:102710001FF026FC38B9574A0121544815F068FDCE
:10272000002004B070BD544C20461FF019FC002856
:102730003AD025691C21A66820462B684F4A43F0F1
:1027400080532B6033689847034628B14C4A0121D7
:10275000464815F056FDE3E74A494B4B4B604FF0B6
:1027600080538B60F36933B10122204698470346BA
:1027700020B1464AEBE76FF05703FAE7B66986B136
:102780002B684FF0A0721C21204613F0805F14BF0D
:102790004FF000734FF08063B047034620B13C4ACE
:1027A000D5E76FF05703FAE710F0CEF806F0DAF845
:1027B00012F0ACFB04460122364912F0C3FB04219F
:1027C00020461FF0EDF90023092120461A4618F093
:1027D00047FE10F0B9F810F0BDF8054610F0B4F857
:1027E00010F0C8F8A5F10801A0F10802204609B2CE
:1027F00012B218F012FE032120461FF0D1F9002377
:10280000254920461A4606F0FBF906F0B1FA2146A2
:10281000054606F00BFB21481FF07CFB294617F00C
:102820006BFD0121284617F0F6FC11F04BF910481A
:1028300083685B6803B19847194C1A4D236864217B
:10284000B3FBF1F201FB12331BB9294601A814F0C6
:10285000B7FB11F037F923680133236000216420AE
:1028600014F08AF8EAE700BF72500260782E026026
:10287000E428026083500260A82802601100010071
:10288000A3500260A8F12820ED260060C750026026
:10289000E95002600E5102601B750160342902602C
:1028A000B4F12820135D02602DE9F04F91B0840748
:1028B00005460E46009302F00403DDF8689002938B
:1028C000C2F3C203039203F10103059340F0BA81FE
:1028D000041D30B1072909D86FF01B0011B0BDE805
:1028E000F08F01F00706341DC6F10806009B4FF07B
:1028F00000084FF0040A591E4FF0FF334746C34605
:1029000001935346CDF810800DB1009A22600598CE
:10291000002800F3E8809848009A824203D3974841
:102920008242C0F0E080039AA4EB050E92074FEAC2
:102930009E0000F103810F2F00F2B180002D00F006
:10294000058107F140020DEB020C019A0CF8200CF6
:102950000CF8102C049801300490E7E07A285DD838
:102960004B280ED8472859D829282DD8252852D0A9
:1029700054D820287AD02338D0F1000B4BEB000B31
:1029800074E04C382E2849D8DFE800F070484848F9
:1029900048484848484848484B48484848484848B4
:1029A0004859484B4B595959704B6D487048184B12
:1029B000184848827F4B48484B487F0000204FF022
:1029C000000B4FF0040A38E02A380122C0B202FAA4
:1029D00000F010EA0E0F49D110F0625C2FD110EA1E
:1029E000020B43D06046013C5444B4FBFAF40AFBAA
:1029F00004F4002D61D0A3EB050CA444B4453FF6CC
:102A00006BAF002868D1042B47D159F8043B2360F1
:102A1000043404232AE0019A013A01924FF0000B9A
:102A200024E011F8010C6C2834D111F8023C00208C
:102A30006C2B8346C5D14FF0080A5346D3E709F102
:102A40000709073429F0070924F00704F9E802AB65
:102A500035B106982044B0423FF63EAFC4E900AB22
:102A600008344FF0000B4FF0080A534611F8010FDD
:102A7000002878D0BBF1000F7FF470AF2528F5D186
:102A8000019B4FF0010B013301934FF0040AECE777
:102A9000584694E700208346A5E7082B02D06FF044
:102AA00015001BE709F1070929F00709F9E80223D6
:102AB000C4E9002308340823D8E768B9042B02D1FD
:102AC00009F10409A4E7082BE9D109F1070929F064
:102AD000070909F10809EDE7059A013A059259F845
:102AE000042B009210E7039A900720D5A4EB050E63
:102AF0004FF0010C4FEA9E00BEF5007FCFD20F2FA2
:102B0000CDD8F5B107F14002C0B20DEB020E019A2B
:102B10000EF8200C0EF8102CBCF1000F3FF41AAF89
:102B200060F07F0008F101080EF8200C0137C5F1B4
:102B3000080204344FF6DA7E069297E74FF0000C55
:102B4000DAE7BCF1000F01D00136EFE70298023658
:102B50000028EBD10098CDE90631FFF72DFD0644A2
:102B6000DDE90631E2E7631BB3F5806F97D23DB92B
:102B7000A6F10804E018B1E6CC26026060B202605B
:102B80009B08029A28602B709DF81030C2B1EB7040
:102B900085F80280B8F1000F05D008A80022C5F121
:102BA000010C97420ED1C5F101030DF120094FF040
:102BB000000A0DF1300B0193574512D1601B8DE6D1
:102BC0006B70E5E710F8013B190608D504EB0C0E15
:102BD00003F07F03B6453FF67FAE04F8013B0132B8
:102BE000DFE7B8F1000F03D099F90020002A17DBC6
:102BF000029BD3B11AF80B2004F8012B0022019B91
:102C000098182044B0423FF667AE99F8000000994A
:102C100004F8010B204603921FF016FD039A14449A
:102C20000AF1010A09F10109C6E799F8002055F8EF
:102C300022300093029B009845F82230FFF7BCFC3D
:102C4000421CDCE76FF00D0048E600BF2DE9F04FB5
:102C500097B00446894600AF90F802A0D7F880B03C
:102C60003B62CBF3C003FA62BB6141B9457800789F
:102C70000AEB800020444D4517D8A0EB0409E37807
:102C8000FB61BAF1000F02D01BF0010F16D1FB69F6
:102C900053BBFB6A1BB13A6A4946204698474D46EA
:102CA00028465C37BD46BDE8F08F461C09F1010996
:102CB0003046FFF781FC01303044DCE7237862685E
:102CC00099007A62FA6A796104EB8301002A40F084
:102CD00000814D460E4601EB0A094FF000084E45B3
:102CE0004CD101EB0A0610E01BF0020FD1D0237883
:102CF0009A0004EB83017A6162687A62FA6A002AB8
:102D000077D14D4601EB0A0690461BF0050F0CBF2C
:102D100002230123FB62FB6906EB430A0BF002036B
:102D2000BB625645BCD016F8021B16F8013C54F89D
:102D30002390AF4B994502D3AE4B994536D3BB692F
:102D4000002B40D0786A14F084FE00283BD0E9467E
:102D50008AB06A46A84B53617B6AC2E906314FF4D8
:102D600000731384A54B42F8103F00234FF4125117
:102D7000A348023D00F08CFCCD46D2E716F8013B9B
:102D8000F96254F82300FFF717FCD7F884300130BC
:102D9000F96A4BB1D7F8883098453EBFD7F88430F0
:102DA00023F8180008F10108054498E7BB6923B12E
:102DB000786A14F04EFE0028C9D11BF0010F05D12E
:102DC000FB6AED1AADE7BB6A002BAAD04846FFF7B5
:102DD000F3FBD7F8843053B1D7F8883098453FBF1C
:102DE000431CD7F8842022F8183008F10108054464
:102DF00097E7BAF1000F72D01BF0040672D0D046EC
:102E0000002607F1480052463B61B9621FF01CFCE6
:102E1000B96A3B6901EB0A02F969BA62FA695200C0
:102E2000FA60BA6A02EB41023A610BF00202BA6040
:102E30003A69B96A8A4257D11BF0020F62780CBF17
:102E40004FEA580100217A621BF0010F3244D2B2DE
:102E500040F09F801BF0040F14BF40460020BB6170
:102E60006270A0702046E1703A6A7969FB6A9847FF
:102E7000051EFFF615AFBB6941463A6A07F14800E7
:102E800023707B6A84F802A06370FB69E370FB6ABD
:102E90009847B0F10008C0F2B5807B69A9EB0A0140
:102EA0003A6AC91AFB68C91AD7E90A039847002881
:102EB000C0F2AA80A8444FF0000B07F1380A08EBD3
:102EC0000005B34567D300213A6AFB6A0846984774
:102ED000E6E656464FF0000807F1380093E75646FD
:102EE000D04697E7B04695E7BA6A12F8021B12F887
:102EF000015CBA6254F825003D4A904202D33D4A33
:102F000090421ED3BA6932B1786A7B6014F0A1FD99
:102F10007B6800288CD1BA6802BB08F1280207F14F
:102F2000300C08F1010008F10208944407F158023E
:102F30005FFA88F852FA80F00CF8101C00F8105C68
:102F400076E7BA693AB1786A7B6014F082FD7B68F3
:102F500000287FF46DAF1BF0010F09D006F12802A5
:102F600007F13000711C161806F8205CCEB25FE73E
:102F70001BF0040F3FF45CAF08F1280207F13000AA
:102F800008F1010102EB000808F8105C5FFA81F813
:102F90004EE7002063E71BF80A3054F8239087F8C7
:102FA0003730D7F88430FBB133F81B803A6A0121FF
:102FB00007F13700FB6A9847002825DB0544B8F184
:102FC000000F06D14846FFF7F7FA00F101081FFA93
:102FD00088F83A6A41464846FB6A9847002813DB5E
:102FE00005440BF1010B6CE7D7F88480DEE700BFE6
:102FF000CC26026060B202606851026004000001E9
:10300000802E026045464BE6054649E6014B1860B6
:10301000704700BF7082282080B505460E461746CF
:10302000984613F0C5FCDFF8209003461FF044FBE0
:103030000446424649F8003039463046A84754F81D
:10304000090002F0D3FA00BF0800000038B502F012
:1030500031FC02F001FC354B354A1A604FF4004256
:10306000344B1A60344B9A6922F4405242F4805235
:103070009A615A6942F000725A619A6C9006FCD4C7
:103080002E4AD36823F01F0343F01303D360136861
:10309000002BFCDA2A4804F095FA274B1A6922F033
:1030A000070242F001021A619A6CD103FCD45A69FA
:1030B00022F4E0525A61204B9A6C9207FCD45A6970
:1030C0001D4C42F440725A619A6942F440229A615E
:1030D0005A6922F000725A61A56C15F02005FBD1E7
:1030E000636A2846174923F040036362636A23F04A
:1030F0003F036362A36923F0300343F01003A3612D
:10310000A36943F0E053A36104F0A0FA0D492846F7
:1031100004F030FA0C4A0649022016F053FB636DA6
:10312000284623F00303636538BD00BFF4F528206B
:1031300000366E01F0F5282000C00F400000084066
:10314000502F026000389C1C3A84282008B504F0F7
:1031500035FD044B044A5A641A6C42F004021A64A6
:1031600008BD00BF00C00A4055FAAF552DE9F04731
:10317000044607464FF00109DFF8508014B938467D
:10318000BDE8F08794FAA4F5B5FA85F509FA05F3D8
:103190002E0108EB05156FEA030A24EA03042B7BD2
:1031A000002BEBD058F806301B694BB9464404227B
:1031B000284607EA0A077368196800F055FADDE740
:1031C000284698470028D9D1F0E700BF082F0260B1
:1031D00030B5002289B00F490F481FF0AAF942F21A
:1031E0001072002300240D4D0D4928460094CDE9AE
:1031F00006230E234FF44072CDE90334CDE9014498
:10320000084B13F009F9084928461EF0E4FF204650
:1032100009B030BD2D320060C8AC2820408C282079
:1032200080FE28200D35006032520260014812F005
:10323000BFBE00BF6C8528202DE9F04780461E48A0
:103240000F4614F047FF064678B300252846BDE830
:10325000F087237B6BB12368DB680BB1204698476E
:1032600023681B69CBB9636804222046196800F003
:10327000FBF9013610344C45EBD3B8F1000FE5D023
:10328000002DE2D02846FFF771FF0546002FF7D04A
:103290000021642013F070FBF2E7204698470028D5
:1032A000E1D00AFA06F31D43E3E7044C0546DFF8D4
:1032B00010904FF0010ADEE7C8F12820082F0260C5
:1032C000182F0260014B53F820007047982F0260BE
:1032D00008B5034608462BB1044A136000F06EFCA3
:1032E000002008BD6FF01500FBE700BF74822820A6
:1032F00010B5044C237813B9034812F059FE01238A
:10330000237010BD1AFD28206C85282010B50446B6
:10331000084814F0DFFE5CB1074BBFF35B8F53E846
:10332000001F013943E80012002AF8D1BFF35B8F78
:1033300010BD00BFC0F12820C4F128200020064B9A
:10334000BFF35B8F014653E8000F43E80012002AE9
:10335000F9D1BFF35B8F7047C0F1282070B5FFF73C
:10336000EDFF084C0546084EB44200D370BD6368BB
:103370005B792BB123685B6813B1294620469847D7
:103380001034F1E7082F0260182F026010B5044CCA
:103390000449204614F08BFC034B1C6010BD00BF99
:1033A00068842820842F0260B8F1282008B5084AD4
:1033B00000234FF47A7107481370074A1360074AD5
:1033C0001360FFF785FFBDE80840FFF7DFBF00BFD0
:1033D0001BFD2820EF800160C0F12820C4F12820C7
:1033E000014600220023014814F082BC6884282092
:1033F000014814F018BD00BF68842820024B014624
:10340000186814F064BD00BFB8F12820014814F01A
:1034100099BD00BF68842820254B70B51878002816
:1034200044D0FFF7E5FF054690B1224BBFF35B8F19
:1034300053E8001F013943E80012002AF8D11E4C5E
:10344000BFF35B8F1D4EB44226D32846FFF7D6FF4D
:103450001B4B1C4C1B68002B12DD1FF023F80A22AB
:103460000023FEF72DFFD4E90032C01A40F2E93301
:1034700061EB0201984271F1000101D3FFF76EFF89
:10348000D4E9003213F57A7342F10002C4E9003244
:10349000BDE87040FFF7BABF63685B7923B123686A
:1034A000294620461B6898471034CCE770BD00BF02
:1034B0001AFD2820C4F12820082F0260182F02606E
:1034C000C0F12820C0AC282070B50D4D297861B915
:1034D0000C4C01200C4EFFF7AFFEB44206D3FFF7B1
:1034E0009BFF0028FBD101232B7070BD63685B79C3
:1034F0001BB1236820469B6898471034EDE700BF56
:103500001BFD2820082F0260182F026000212DE9E2
:10351000F0470846FFF790FE044658B34FF4FA7898
:103520004FF000091C4B1FF0C7F81C4A1B581360D2
:1035300033B11B4B1B68092B02DD1A4812F038FD12
:103540000025194FDFF85CA044B12046FFF70EFEBE
:10355000044618B94FF0FF384FF0FF39FFF75CFF12
:10356000064628B9B5B942464B46504612F044FDCE
:103570003546E9E74FF0FF384FF0FF39D2E72B68C7
:103580009B691BB100222846114698471035BD4261
:10359000F5D3E8E7054DFAE708000000BCF1282064
:1035A000C4F128206C852820182F0260082F0260A3
:1035B00013B5184814F08EFD174B1B7873B1EFF359
:1035C0001184102383F31288BFF36F8FFFF724FF5A
:1035D00084F31188BFF36F8F02B010BD0F4B1B68CF
:1035E000002BF9D050B9002200230D48CDE900236B
:1035F0004FF47A72002313F05DFCEDE70928EBD15C
:1036000007481EF0A2FF074802B0BDE8104012F0C4
:10361000CFBC00BFC4F128201BFD2820BCF128200E
:10362000C8AC28206C852820064B10B504461B68C2
:1036300098472146A060044814F0D6FBBDE810402E
:10364000FFF7B6BF7482282068842820044A054BFF
:103650009B1AB1EBD30F34BF52F8310000207047F2
:10366000782E0260082F0260084BC31A1B1110B499
:1036700001334468237143689A71012243681960D9
:1036800043685A7110BCFFF733BE00BF082F0260B9
:103690002DE9F04F8FB0C1F34A280D46914604AF93
:1036A0000C0DB8607B60B8F1000F63D0002607F105
:1036B00014034FF0040B4FF00A0AC7F80C8032468F
:1036C0007E624846C7E90766019307F11C03CDF8FF
:1036D00008B0CDF800A0F968FFF7B8FAB0F5006FB0
:1036E00003461CD36C468AB0D9F8041004AB2648B4
:1036F0001A46C3E9050140F2FF71D9614FF4007128
:103700001984224B42F8103F4FF41251334620489F
:10371000FFF7BEFFA5462C37BD46BDE8F08FC0F3CE
:103720000A0804F117003B60184468F3532520F0A1
:1037300007008008FFF754FE044690B13B6800F193
:103740001001144A4846F961C7E9083607F1140325
:10375000CDF808B0CDE900A307F11C03F968FFF725
:1037600075FA68F353257B68B96820462A4614F039
:10377000EFFCD0E704F1170020F007008008FFF706
:103780002FFE0446EDE700BF47520260040000012F
:10379000A82E0260258101602DE9F04F87B0044614
:1037A000934698460391DDE91279DDE9105ABFB1DD
:1037B0003B46524610210020CDF80090CDF81490E1
:1037C000FFF772F8B0F5006F06460AD340F2FF73B8
:1037D000174A0221174807B0BDE8F04F14F011BD99
:1037E0003E4604F0070405F117000BF0070BE40058
:1037F000304444EA8B1420F0070044EA4624800851
:1038000044EA0554FFF7ECFD054640B13FB13B46A5
:10381000524631461030CDF80090FFF745F8434648
:1038200022460399284607B0BDE8F04F14F090BC3B
:1038300086520260A82E0260406820B1034BC01A75
:1038400040F3CF0070474FF0FF307047782E026092
:103850000EB403B503AB0146054853F8042B01939E
:1038600002F0EEF902B05DF804EB03B0704700BF60
:1038700065820160CA0605D48B064CBF0249034924
:10388000FFF7E6BF704700BFBF520260BE52026042
:103890002DE9F04F89B09B4604460D46149B904697
:1038A0009DF84CA00693159B179E0593169B0493B9
:1038B000BAF1000F00F09D8006F4807306F0020953
:1038C000079314F02DFC024600283ED09149204673
:1038D000FFF7BEFF0746B9F1000F08D016F0440FFE
:1038E00035D12A468C492046FFF7B2FF074406F03F
:1038F000010353B1894B2046894953F82A20894B4B
:10390000002A08BF1A46FFF7A3FF06F48073002BB6
:1039100049D006F00803002B63D1B8F1000F66D040
:10392000424681492046FFF793FF0546069B3D44EA
:10393000002B6DD1049B002B73D1F30700F1E480C1
:1039400031462046FFF796FFD8E00746C3E7774B9E
:1039500018680028CAD0764B4FF47A794FF4616129
:103960004FF03C0C1B68B5FBF3F5B5FBF0F300FB27
:10397000135509FB05F5B3FBF1F2B5FBF0FE01FBB6
:10398000123100FB1E55B1FBFCF309FB05F50CFBE6
:103990001311B5FBF0F5009120466649CDE901E52C
:1039A000FFF756FFA2E706F00803EBB1624B204693
:1039B000624953F82A20FFF74BFF0546B8F1000F84
:1039C00005D0424658492046FFF742FF0544BBF167
:1039D000000FABD05A465A492046FFF739FF05443D
:1039E000A4E74FF0000BE1E706F00805E6E74546DF
:1039F0009CE7BBF1010F069B06D1002B64D1049B11
:103A0000002B7BD000250CE0002BF8D04D485CE06B
:103A10004D48069B22464D4913F0EAFF049B002BBC
:103A200068D0DFF82C81DFF82C91049F4FF0000B59
:103A300031462046102F28BF1027FFF71BFF5D459A
:103A400045DC059B4FF0010B494620461A78FFF7ED
:103A5000FFFE1BF0070F03D141462046FFF7F8FE9B
:103A60005F453BD9059B4946204613F80B20FFF7DD
:103A7000EFFE0BF1010BBBF1100FEAD14FF0000B81
:103A800035492046FFF7E4FE5A46059B20469A5CDE
:103A9000A2F120015F29314928BF2E22FFF7D8FE6D
:103AA0000BF1010BBBF1100F1DD01BF0070F03D161
:103AB00041462046FFF7CCFE5F455A46E5D84146D1
:103AC0002046FFF7C5FEEBE71F485546A1E74146F4
:103AD00020460BF1010BFFF7BBFEB0E72049204663
:103AE000FFF7B6FEC5E7059B3B440593049BDB1B34
:103AF00004939AD1BAF1000F7FF41FAF204609B0AA
:103B0000BDE8F04F14F0A1BB064A20460449FFF778
:103B10009FFE15E7C6520260CA520260A82F0260DB
:103B2000CE6F0260C1520260EF520260D0F12820D5
:103B3000CCF12820D3520260BC2F0260F352026005
:103B4000F95202609B82016065820160415C006005
:103B500006530260FE520260085302600A5302607C
:103B60000453026042F20F73114A8B4273B504464C
:103B700028BF0B4605680521684613F0F5F9636810
:103B800006460B2228465B680A4914F050FB63681E
:103B90003246694628465B6814F049FB63681B227D
:103BA00005495B68284614F042FB02B070BD00BFB7
:103BB000135D0260295302600D530260002101234E
:103BC000064A904206D8064A01B901231360054B04
:103BD00018607047400801215B00F2E740420F0087
:103BE000CCF12820D0F12820F8B50D46044646181F
:103BF000054FB44201D12846F8BD14F8011BBB683B
:103C000001485B689847F4E7E0270260014B0360D6
:103C100000207047043002600C4BF0B40C4E5F6A19
:103C20000C4BB34203D36FF08500F0BC70475D6866
:103C3000BD4209D31C693CB195F802C00579AC4579
:103C400002D12346F0BC18472433EAE7F8F12820D4
:103C500068862820448628202DE9F04705460E4630
:103C60001746124CDFF84880DFF84890444503D3EC
:103C70006FF08500BDE8F0876268D9F824309A4279
:103C800012D3A36983B190782979884205D13A4645
:103C900031462846BDE8F04718475279012A03D13A
:103CA0003A463146284698472434DFE744862820A0
:103CB00068862820F8F128202DE9F04105460E46B7
:103CC00017460A4CDFF82880444502D36FF0850080
:103CD00009E063690BB92434F6E73A4631462846D1
:103CE00098470028F7D1BDE8F08100BF448628201E
:103CF00068862820024B00221A605A60704700BF75
:103D0000B3F2282070B50B4B0B4CA34201D300201B
:103D100070BD196A00221E7F0439D5B2AE4201D8A7
:103D20002433F2E7013211F832508542F5D10120F7
:103D3000EEE700BF448628206886282008B5044A9C
:103D400003460121034814F014FB002008BD00BF06
:103D50006F530260F82E026038B5054602F05EFA35
:103D600010F1780F044611D12B460D4A02210D485F
:103D700014F0FFFA2846002414F0FDFA0A4AD2F89B
:103D8000C43023EA0003C2F8C43007E00028F1D0B1
:103D90002B46064A0121034814F0EBFA204638BDB1
:103DA0008A530260F82E0260F8F12820AB530260BB
:103DB000094808B50378C3F341130A3350F8233098
:103DC0003BB100F1080200F110019847C043C00F59
:103DD00008BD1846FCE700BFF8F1282004282DE9AB
:103DE000F74F04460F46DFF8989015D001282FD1E1
:103DF000DFF8908098F8B93053B3234D00F0C0FE3F
:103E00004D4522D22A6A4FF0000A2B7F5FFA8AF6CC
:103E1000B34204D82435F3E7FFF76CFFE8E702EB81
:103E2000C60601920AF1010A307902F0F7F98346D9
:103E3000307914F0A0FAD8F8C430BBF1000F019A21
:103E400023EA0003C8F8C430DFDA002388F8B93069
:103E50000D4D4D4508D30B4B1B6A6BB139462046BF
:103E600003B0BDE8F04F1847EB681BB13A46214656
:103E7000284698472435ECE703B0BDE8F08F00BF33
:103E800068862820F8F128204486282073B5C4B21B
:103E90000D4663068DF8074007D02046FFF732FF36
:103EA000B0B1144B93F8BA0090B1124E23468DB1C5
:103EB000114A0321114814F05CFA9DF8070002F042
:103EC000F5F8F3691BB10DF10701082098470120AF
:103ED00002B070BD0A4A0321084814F04AFA9DF85E
:103EE000070002F001F9F369002BF0D00DF1070192
:103EF0000920EBE7F8F12820CD530260F82E02608C
:103F0000E053026073B5044680782B4D8DF80000B5
:103F10002379627943EA0223ADF80230E37803F0B3
:103F200003038DF8043014F026FAD5F8C4300646A1
:103F300018420CD0A478204600F004FE2046FFF77B
:103F40000BFF1EF042F910B996201EF03EFA6846AB
:103F500002F03AF810F1780F9DF800301BD1174AA3
:103F60000221174814F005FA9DF8000002F01CF930
:103F700010F1780F19D19DF800300221114A104834
:103F800014F0F7F9D5F8C4300120334385F8B900AF
:103F9000C5F8C43007E00028E6D00B4A08480121E4
:103FA00014F0E7F9002002B070BD0028EAD09DF8B7
:103FB0000030064AF2E700BFF8F12820F55302600E
:103FC000F82E02603C540260185402605C54026097
:103FD0002DE9F047924D04460E461746AB69C3B92A
:103FE000207800F01F00012876D0022800F0DC8045
:103FF00000BB94F900103A68002963782EDA062B8A
:104000000CD0082B25D0ABB95370012313700223B9
:1040100003E198470028E3D100200DE06388190AE6
:104020000A1F8C46012A05D9072903D8DAB26B6A20
:104030001C781CB96FF01500BDE8F0875D78654508
:1040400003D1824200F0E48001302344F0E71B7882
:10405000E3E095F8BA3013700123DEE0052B11D0B0
:10406000092BE7D163886E6A002B32D1FFF742FE3D
:10407000638885F8BA30EB69002BCDD069490320FD
:104080009847C9E7A07801F08BFF0028C4D0D1E79A
:104090007378042B10D0052B11D0022B04D1777923
:1040A0006388BB4208BF012033781E443378002B5D
:1040B000EED10028BED0D9E796F80380F4E76388F4
:1040C000BB42F1D1B8F1000FEED13046FFF71AFF35
:1040D000EAE7FF27B846E9E795F8BA30D7F800C015
:1040E000002BA7D06F6AA28894F804E03B461878AA
:1040F00000289FD05978022904D193F80480F04514
:1041000000F292800344F2E78CF800308CF8013022
:10411000316081E71F4493E00B2B8BD100264FF0D9
:10412000FF08B246C14606E07B78042B0FD0052B72
:1041300021D03B781F443B78002BF5D1EB6913B1BC
:10414000514607209847002E7FF466AF72E797F834
:104150000280A38897F803909845EAD1638899452F
:10416000E7D1B8F1070F1CD805EB0803BA460126C2
:1041700083F8BB90DDE7A3884345DAD1A3784B45AC
:104180000AD0BE78304600F0DDFC3046FFF7E4FD93
:10419000B0FA80F67609CCE73846FFF7B3FE06465C
:1041A000C7E7BA460026C4E794F900206378002ADE
:1041B00018DA002B7FF43EAF24793F6863060AD0FB
:1041C0002046FFF79FFD00283FF434AF95F8BA3042
:1041D000002B3FF42FAF3946204601F0BFFF0023EC
:1041E0007B7014E7012B08D0032B7FF423AF638887
:1041F000002B7FF41FAF012103E0618800297FF4C9
:1042000019AFA088FFF742FE00287FF405AF11E741
:1042100002293B607FF41BAF5B883360FCE600BF84
:10422000F8F12820B2F2282094F9000063780028E1
:10423000BFF672AF002B3FF467AF0A2B7FF4FAAEE4
:104240003B78002B3FF4F6AE797804297FF462AF17
:10425000B9788A427FF45EAF072A96BF52190023CD
:1042600092F8BB308CF80030F6E600BF2DE9F84F2D
:1042700005460F46904699460426DFF834B0DFF82D
:1042800034A04B4642463946284601F0F5FF10F16E
:104290000B0F044609D12B465A460221504614F012
:1042A00068F812F0E7FA013EEBD12046BDE8F88F3E
:1042B0007D540260F82E026013B5164C237DF3B9CD
:1042C000E26801ABA16880200192FFF7CFFF019A5D
:1042D000A3681344A360E3689B1AE3606BB962B1FF
:1042E0002369E2889A4208DD94F8C82093FBF2F132
:1042F00002FB11330BB90123237502B010BD00235B
:1043000080201A461946237502B0BDE8104001F01E
:10431000B3BF00BFF8F128207FB500230D46064645
:104320000193002862D100293AD108220B460DEBF7
:10433000020114F0DFF9002804DA802001F0B6FE53
:1043400004B070BD2E4C029ABDF80E302260039A64
:104350002575626004F13802A2609DF90820002AE8
:10436000C4E903550FDB802B09D9264A01212648D1
:1043700013F03EFF802001F099FE2846DEE713B1DE
:10438000C4E90333DCE7FFF713FD0028D5D0E2884A
:1043900023699A42D4BFE260E360FFF78DFFCFE765
:1043A000174C01ABD4E90212002A05DC024614F0D6
:1043B000A1F90028C4DAC0E714F09CF9002804DA57
:1043C000802001F073FE3046B8E7019AA3681344D9
:1043D000A360E3689B1AE360002BB1D104F13803BA
:1043E000A360FFF7E5FC0028D7D1A6E78028A7D176
:1043F000034BDA68002AD0D11B7D002BCDD19FE77B
:10440000F8F12820A4540260F82E0260054B064AF9
:10441000586200209A62054ADA62054A1A63054A20
:104420009A617047F8F12820D13F0060193C006084
:10443000B93C0060593C00602DE9F34104464C4D05
:104440004FF0FF334FF0FF324A4811F0FDFC95F872
:10445000B8306BB16FF07704474A0221474813F038
:10446000C7FE444811F068FD204602B0BDE8F08167
:104470006B6A6BB900F0D6F8FFF7C8FF6B6A3BB9FF
:104480003F4A01213D4813F0B3FE4FF0FF34E8E707
:104490003C482C62E8616E6A01F0D6FF01F052FDE3
:1044A000041EDEDB00F08EFB041EDADB7378012BCA
:1044B00001D1F3793BB9344A012130486FF015043A
:1044C00013F096FECDE70026684685F8C830ADF8B3
:1044D00002308DF804608DF8006001F075FD041E57
:1044E000BFDB802768468DF8007001F06DFD041E6B
:1044F000B7DB2649304601F08DFF041EB1DB2349AE
:10450000384601F087FF041EABDB214CDFF88480C6
:1045100044451AD3002001F047FE041EA1DBD5F864
:10452000C430802043F00103C5F8C43001F03CFEE4
:10453000041E96DBD5F8C430002443F48033C5F85C
:10454000C430012385F8B8308BE7276A0026227F24
:10455000F3B29A4201D82434DAE707EBC30257F8E2
:1045600033100136107901F055FF0028EFD08CE7A9
:10457000F8F12820B8842820BD540260F82E02608B
:10458000E0540260DD3D00600555026019430060A3
:10459000448628206886282030B5204B8BB003F154
:1045A000100505AA1868083353F8041C1446AB42DA
:1045B00003C42246F6D11B781022002101A82370E3
:1045C0001EF06AF81222002115481EF065F810212D
:1045D00001A802F063F900281DDD082801AB10498D
:1045E000B8BF082009381A18002012F8013F0AAC99
:1045F0000130023104EB131403F00F03082803F118
:10460000280314F8144C6B4401F8024C13F8143CC2
:1046100001F8013CE9D102480BB030BD3F550260C2
:104620001EFD28202DE9F04F894B87B093F800A09C
:1046300000AFBAF1000F04D086481C37BD46BDE874
:10464000F08F844C00264FF001193546B046FE60CD
:1046500023783BB90234804B9C42F3D101237C4A3E
:104660001370E9E76378052B1DD8DFE813F0AD0080
:104670000600EF00AD001F005000402307F11000BE
:1046800087F810A07B8287F814A014F020F840B1BE
:10469000082307F110007B8214F019F808B1A7F87D
:1046A00012A07B8AE37123781C44D1E7E378002BC6
:1046B000F9D1A37813B3FB680133DBB2FB60F2E7F7
:1046C0006B689C421CD02435644B9D42F8D36D46E8
:1046D00088B06A46624BC2E90534032342F8103FB2
:1046E00000234FF4C2515F48FEF7D2FFAD465D484C
:1046F00001215D4A13F07CFD00209EE75B4DE3E75E
:10470000AB68002BD7D0F96820469847D3E7002D37
:1047100058D1574A0121534813F06AFDE7E72B6A45
:10472000A07803EBC2010B79984245D14FF0010B01
:10473000E0785FFA8BF300F003003875207994F885
:1047400005C040EA0C20788294F90200002826DA9D
:104750000BF110004FF0010C0CFA00F010EA090FF9
:1047600025D143F08000387407F11000BA60C7E922
:10477000003113F0ACFF3B68D7E90112B8B93A7CBD
:1047800012F0800FA2700A714FF0010217BF1033B0
:1047900002FA0BF2DBB29A4049EA020983E70120F0
:1047A00000FA0BF010EA090F01D11846DBE70BF114
:1047B000010BBBF1100FBBD101322B7F9A42AED35C
:1047C0002C4AA7E70022F8E7032E25D1FFF7E4FEE5
:1047D0008346A8B1FDF7F0FE034688B1102806D045
:1047E000B860254A02211F4813F002FDBB68102B58
:1047F000594604F10200A8BF10231A461DF024FFF9
:1048000023786FF00201E218091B04EB5303D14235
:1048100009D50136F6B246E7002EF1D1B8F1000F06
:1048200008D1164A76E702F801AC13F8010902F83C
:10483000020DECE7A4EB080388F80230C3F307236A
:1048400088F80330FB6888F80430E2E7A0462AE7DE
:104850001DFD28207C852820438628206886282066
:1048600050550260F02E02603656026044862820C1
:1048700070550260B1550260CE5502601956026053
:10488000084B00211A4610B51C78844204D15C689C
:1048900014B102EB811010BD013140330429F3D172
:1048A0000020F8E7C4F228202DE9FF4150F8283C09
:1048B000044610F82C6C10330AD1036950F8202CF0
:1048C00098073DD5D2B9590715D5002344F8283C9F
:1048D00054F8283C10330BD054F8148C54E9077565
:1048E0001DF073FC002857D0214632481DF051FCC2
:1048F00004B0BDE8F08143F00403236103AB54F836
:10490000241C3046FFF7B2FC034640B12A4A01217D
:104910002A48009613F07FFC6FF01503D6E7039A40
:1049200054F8243C134444F8243C54F8203C9B1A8B
:1049300044F8203C54F81C3C134444F81C3CC7E7A2
:1049400003AB54F8241C304601F0C8FC0346002891
:10495000DCD1039D54F8243C2B4444F8243C54F807
:10496000203C5B1B44F8203C54F81C3C2B4444F88E
:104970001C3C002DA9D0304601F06CFDB5FBF0F3D6
:1049800003FB1055002DA0D154F8203C002B9CD0E7
:10499000304601F005FD9BE744F8180CA4F1100027
:1049A00011F006FB002DA3D0424639463046A847F9
:1049B0009EE700BF00AD282064560260002F026011
:1049C0004B1E012B73B506460D4614D8FFF758FF52
:1049D000044690B9012D0ED101AB01220DF1030166
:1049E000304601F07BFC019B002BF5D10C4A0121E4
:1049F0000C4813F0FDFB02B070BD1DF0E6FB04F1A6
:104A00002C0108B1012D05D1084602B0BDE8704067
:104A1000FFF74ABF044802B0BDE870401DF0B9BBC3
:104A200081560260002F026000AD28202DE9F74F6B
:104A3000054616469846019113F0DDFC002871D119
:104A4000EFF311831022009382F31288BFF36F8F6C
:104A5000DFF8D890834600220023484611F0CCFAB4
:104A6000A0B9DFF8CCA04FEA8B170AEB8B1BDBF861
:104A7000044014F1100F20D12E4A2B4601212E485C
:104A800013F0BFFB484611F093FA0DE00BF1010B58
:104A900009F14009BBF1040FDDD16FF00B04274A87
:104AA0000121254813F0A4FB009B83F31188BFF379
:104AB0006F8F204603B0BDE8F08F0C99019BCBF8B7
:104AC00014100D99CBF810002846CBF818106FF091
:104AD0000F010AF80750CBF83C80CBF80410CBE963
:104AE000023601F0B7FC68B1284601F0B3FCB6FB12
:104AF000F0F101FB10662EB1DBF83C1041F004012F
:104B0000CBF83C1018F0020F07D007F12C010C482D
:104B1000002451441DF03DFBC6E7284601F040FC4F
:104B20000446C1E76FF00F04C3E700BFE0F228209E
:104B3000C4F22820B6560260002F02609B56026025
:104B400000AD282010B5EFF31184102383F31288F1
:104B5000BFF36F8FFFF794FE50B14368103307D156
:104B60006FF08B0300F12C01436004481DF011FB32
:104B700084F31188BFF36F8F10BD00BF00AD2820F4
:104B8000F8B50E4C04251027EFF3118687F3128831
:104B9000BFF36F8F6368103307D16FF08B0304F19D
:104BA0002C01074863601DF0F4FA86F31188BFF307
:104BB0006F8F013D04F14004E6D1F8BDC4F2282016
:104BC00000AD282070B5094C0025094E314620461D
:104BD0001DF0C3FA01220135A4F110004034114642
:104BE0001DF070FA042DF1D1002070BDF0F22820E4
:104BF000A948006070B504460E460179154615486F
:104C000013F0D6FB10B394F900206378002A16DB6A
:104C1000202B04D0222B0ED06FF085000AE02B68E9
:104C20001A6840F8102C9A8820F80C2C9B7900F810
:104C30000A3C002070BD638800F8093CF9E7212B8D
:104C4000EAD11038072328603360F2E76FF01200D2
:104C5000F0E700BFC4F328200146044808B513F06C
:104C6000B4FB10B1012300F8073C08BDC4F32820B1
:104C70000169012381F84B300B6833B191F8493059
:104C80001BB1083101481DF084BA704700AD2820DF
:104C90000169012381F84A300B6833B191F848303B
:104CA0001BB1083101481DF074BA704700AD2820CF
:104CB000012370B582F848300D46136814463BB1A5
:104CC00092F84A3023B102F108010D481DF061FA53
:104CD000D4F850329A681B699A4205D17DB904F123
:104CE00018014FF47A7204E004F11801002DF8D095
:104CF000002200230248BDE8704011F0E1BA70BD07
:104D000000AD282070B5056995F85E02E0B195F810
:104D10005F32D3B985F84830EFF31186102383F35F
:104D20001288BFF36F8FD5F8500213F04DF9044687
:104D300086F31188BFF36F8F0022002305F118015D
:104D4000034811F0BDFA204670BD0020FCE700BF0B
:104D500000AD282000210D4A0346A0F84810106835
:104D600083F85C12C3F8540290889279A3F8580231
:104D700003F14C0083F85A224FF4007283F85B125F
:104D8000A3F85E1283F860121DF086BC382F026013
:104D9000F0B5D0F84C3285B004465B681B6A1F7DC5
:104DA000384613F028FB064608BB94F84632F3B1A8
:104DB0004FF4806203A9D4F8380213F024F90546B1
:104DC000A8B1C0F3080384F8306003B9451EA4F10C
:104DD000180303992A4638460193064B0093022391
:104DE000FFF724FE2946D4F8380213F02BF905B05A
:104DF000F0BD00BFB14C006010B500230469C4F8D9
:104E0000683204F51A720B4BC4F86402596869B928
:104E1000C3E9002204F1080007491DF09EF904F1DE
:104E2000180006491DF0C5F9002010BD0A605A603F
:104E3000F0E700BFC4F3282021840160914D006099
:104E400030B54FF40033426885B0056942F2A100E5
:104E50000B4CADF80C1001A9CDE90103002385F836
:104E60005D32106A0A220079FFF700FA95F85D3288
:104E700023B901201DF064F8013CF7D105B030BD25
:104E8000A186010073B50023046910258DF8071071
:104E900084F84830EFF3118685F31288BFF36F8FE3
:104EA00001220DF10701D4F8500213F08DF886F3BA
:104EB0001188BFF36F8F01280AD01DF086F910B951
:104EC00094F861326BB9094B1A780AB901221A7049
:104ED0000A22002304F11801054811F0F1F902B08B
:104EE00070BD00210A2011F047FDD3E730FD2820D6
:104EF00000AD282037B514460A1E054621DD04F111
:104F00004C01D4F84C0213F05FF8012384F84930C7
:104F100023683BB194F84B3023B104F108011148E8
:104F20001DF037F9D4F84C124B684A699A1ACB69CC
:104F30009B1AB3F5007F04D2012384F8603203B0DA
:104F400030BD94F85E32002BF9D0074B4FF400725D
:104F500004F14C012846009301230194FFF766FDFC
:104F6000EDE700BF00AD2820F54E006073B50D469B
:104F700001461C4813F011FA10B30368691EA0F52E
:104F800019745E6805291BD8DFE801F01C1A031CA0
:104F9000222694F85E1299B90123224684F85E32E3
:104FA000336A187BFFF7A6FF94F8482042B9336AAA
:104FB0001146187D0C4B019400930223FFF736FD38
:104FC00002B070BD204602B0BDE87040FFF7C2BE1F
:104FD000012384F85F32F3E794F85F32002BEFD0BF
:104FE0000023F6E7C4F32820B14C006037B5094D23
:104FF00000244FF0FF334FF48062074928460094A5
:1050000011F020F9054928461DF0E5F8204603B0C7
:1050100030BD00BF00AD2820C0012920F956026034
:105020002DE9F047064600AF0C46002936D0E94688
:105030008AB0A3686D46D1E9001221484FF0050AF5
:10504000A846C5E90501C5E9072348F810AF0023C4
:1050500042464FF421511B48FEF71AFBCD466369C7
:10506000AD46D4E903121848C5F810A0C5E90501FA
:10507000C5E90723002342464FF421511148FEF7AA
:1050800007FBCD46E369114A01210E4813F0B9F838
:10509000A3690F4A01210B4813F0B3F8012E07D181
:1050A000EFF305830B4A103B3146064813F0A9F88D
:1050B0002146304610F06AFCBD46BDE8F08700BFCF
:1050C00002570260D02E02603157026060570260C2
:1050D0006F5702609D57026030BFFFF7FDBF00BFF2
:1050E0002DE9F0410B4E0546DFF82C80324606EBE9
:1050F0000807CC1B094920461DF0A6FAA019083C58
:10510000424600211DF0C8FA07F108002C67BDE8EF
:10511000F08100BF0000000004000000282F0260A2
:10512000074A936893F90E10002907DB52699342EE
:1051300004D0044A536843F080535360704700BF63
:10514000C0FC282000ED00E070B5294C06460D4655
:105150002848294913F084FAA36AD9043CD5254884
:10516000264913F07DFA1720A36A1A0504D52148B1
:10517000234913F075FA18201D4CA36A9B0512D51C
:105180001C48204913F06CFAA36BA26A100409D5DD
:105190001D4A0121174813F034F81EB1A36A23F405
:1051A0000043A3621920124CA36A590504D5114883
:1051B000164913F055FA1A20A36ADA050ED50D48E0
:1051C000134913F04DFA1B20094A936A43F47F43B5
:1051D000936200232B7070BD1620C5E7A36A9B0461
:1051E000F2D504480B4913F03BFA1C20ECE700BF52
:1051F00000ED00E0D02E0260B0570260C65702609A
:10520000D7570260EA5702600358026018580260DC
:10521000335802604B58026010B5204C2049214899
:1052200013F01EFAA36A990136D51E481E4913F0E1
:1052300017FA1E20A36ADA0104D51A481B4913F095
:105240000FFA1F20154CA36A1B0304D515481849F3
:1052500013F006FA2120A36A590304D51148154911
:1052600013F0FEF922200D4CA36A9A0304D50D48D1
:10527000114913F0F5F92320A36ADB0304D509488B
:105280000E4913F0EDF92420044A936A6FEA0343B0
:105290006FEA1343936210BD1D20CBE700ED00E0E1
:1052A0007A580260D02E026092580260A5580260BF
:1052B000BF580260DD580260025902601C5902604A
:1052C0002DE9F843364D804689463648364917461B
:1052D00013F0C6F9AB6ADE0627D5112433493148ED
:1052E00013F0BEF9AB6A1D0704D5122430492D48CE
:1052F00013F0B6F92A4DAB6A980718D52D492948FD
:1053000013F0AEF96E6BAB6A190646D52A4A3346DE
:105310000121244812F075FFB9F1000F03D0AB6AE8
:1053200023F08003AB62132403E01024DAE76FF06C
:1053300015061B4DAB6ADA0704D514241F4919481A
:1053400013F08EF9AB6A9B0604D515241C49154849
:1053500013F086F9124B9A6AD50602D49A6A90071E
:105360000AD55B68190507D54146304600F018FAA2
:1053700010B180F309880224094B9A6A920603D57A
:105380005A6A22F400525A629A6A204642F0FF0298
:105390009A6200233B70BDE8F8836FF01506C2E700
:1053A00000ED00E0D02E0260475902605D590260B6
:1053B000D757026090590260A8590260BE59026036
:1053C0004B5802602DE9F041664B8AB00446002636
:1053D000D3F8048000AFC8F3080586F31188BFF343
:1053E0006F8F02F07F43B3F17F4F07D102F00C03C0
:1053F000082B12D15C495D4813F032F9002634467F
:105400000023FB71EB1E092B00F28B80DFE803F019
:105410000A81847E89898989898710074CBF0C4657
:105420000126EDE75249514813F01AF94D4D00237A
:10543000FB71EB6A9A0705D54E494C4813F010F9F9
:10544000002333E0EB6A002B01DA4B49F5E7EB6A06
:105450005B00F5D54949454813F002F96B69A2692B
:1054600043F480736B61BFF34F8FBFF36F8F6B6932
:1054700032F8022C23F480736B61BFF34F8FBFF3BC
:105480006F8F4DF602739A4209D0AB6ADBB283B3D9
:10549000FA1D01212046FFF713FF034606E02368AB
:1054A000374A0121314812F0ACFE2368FA79E2B99B
:1054B00007F1080504F1200C2068083454F8041C96
:1054C0002A46644503C21546F6D17A6A002E44D0B6
:1054D000C2F3080121B96FEA52226FEA42227A62CE
:1054E00007F108011846FFF79BFD2837BD46BDE8C8
:1054F000F081AB6A13F47F4F04D0F91D0120FFF750
:1055000023FECAE7AB6AB3F5803F99D3FFF784FE69
:10551000C3E7FA1D0021BDE7F91D0020EFE7194997
:105520008BE718F4F87F184AE8468AB0174B18BF83
:1055300013466A461649103DC2E905134FF400733D
:10554000D5611384134B42F8103F00234FF41151DF
:105550000648FEF79DF8C54672E722F4FF7222F076
:105560000102BCE700ED00E00B5A0260D02E0260A1
:10557000365A02604D5A02606E5A02607C5A0260CE
:105580009B5A0260B75A0260F2590260DD5902600C
:10559000DB5A026004000001024A536943F0100321
:1055A0005361704700ED00E0EFF30880EFF30981ED
:1055B00001B57246FFF706FF01BD00BFFDF7C6FD4E
:1055C000102080F3118808484FF40461401880F3DC
:1055D0000988EFF314800221084380F31488BFF395
:1055E0006F8F00F0A3F80000400A2920084B9B6849
:1055F00083420BD1EFF3058343B1064B5A6842F067
:1056000080525A605A6A22F400425A621CF0EDBE7F
:10561000C0FC282000ED00E0094A6FF00A01936801
:105620009967084958674B6843F080534B600023E3
:1056300083F31188BFF36F8F9368986F704700BF33
:10564000C0FC282000ED00E010B50446EFF3118304
:10565000102383F31288BFF36F8F0A4B4FF0006261
:1056600058699860084B5A60084B026F1A60002214
:10567000436F426783F31188BFF36F8F00F040F9E7
:10568000204610BDC0FC282000ED00E0CCF328200F
:105690000B498A684FF030001044EFF3098C80E822
:1056A000F01F74467046FFF7CFFFA64604498A688C
:1056B00002F1300090E8F01F8CF309887047000079
:1056C000C0FC28201EF0040F0CBFEFF30880EFF39E
:1056D0000980816911F8021C0229FFD001B512F07E
:1056E000B4FF01BD00B2002807DB0123410900F02F
:1056F0001F00024A834042F82130704700E100E079
:1057000000B2013100284FEA0111C9B206DB00F1F5
:10571000604000F5614080F80013704700F00F0012
:10572000014B1954704700BF14ED00E00F4A08B553
:1057300022F07F020E4B9A60BFF34F8FBFF36F8F43
:10574000D3F8882022F47002C3F88820EFF3148382
:1057500023F0040383F31488BFF36F8F10F002FA71
:1057600011F0C4F900F05AF810F04AFA0020006075
:1057700000ED00E042F8203C203A009B07495360CE
:10578000019B21F001019360029B9161D3604FF076
:105790008073D3610023026543677047193000604E
:1057A000094A0346906870B113F1160F006E05D0D8
:1057B000A0F140029A4205D8834203D2814228BF19
:1057C0000020704700207047C0FC282015460C4A76
:1057D0000E4608B50B4B9060026F1A6000F090F80F
:1057E0002C4686F309884FF00000074B9847204667
:1057F0004FF000014FF000024FF00003034C204730
:10580000C0FC2820CCF3282071860160193000608C
:10581000014B10221A61704700ED00E0002304489C
:105820001021C2180133A02B82F80013F9D1704760
:1058300000E100E008B5EFF30583064A103B02EBF8
:10584000C30152F8330049688847BDE80840FFF7B4
:1058500067BC00BF48290260154A70B5536913F44C
:10586000803323D1C2F88430BFF34F8FD2F8803019
:1058700043F6E074C3F3C900C3F34E335B0103EA9C
:105880000406014646EA81750139C2F86052F9D230
:10589000203B13F1200FF2D1BFF34F8F536943F434
:1058A00080335361BFF34F8FBFF36F8F70BD00BF65
:1058B00000ED00E00B4B5A6912F4003211D1BFF336
:1058C0004F8FBFF36F8FC3F85022BFF34F8FBFF3DB
:1058D0006F8F5A6942F400325A61BFF34F8FBFF3A2
:1058E0006F8F704700ED00E0024B0221024A03482F
:1058F00000F08AB800002C200000282058300260F8
:10590000026E4021044B403A18461A60034AC3E92C
:105910000112012100F082B8D0F3282000000B15FD
:1059200008B503461048D0F89020C2F30722013A88
:10593000934207D90D4801210D4A12F062FC6FF025
:10594000150008BDC0F898300A6822F01F021A43FB
:1059500042F01002C0F89C208A6842F00102C0F8B0
:10596000A0201846EDE700BF00ED00E0C82E026061
:10597000F25A0260F0B50E4685B01F460446002577
:10598000B5420DDA606810B397B1431E18420AD0D1
:10599000104A2B460121104812F033FC6FF015021B
:1059A000104605B0F0BD1F28F2D921680B42EFD197
:1059B000236801A9019312F06FFEA3680343D0B2DC
:1059C0000393FFF7ADFF10F1160FE7D0421C01352E
:1059D0000C34D5E7185B0260C82E0260044B052228
:1059E000C3F89420BFF34F8FBFF36F8F704700BF92
:1059F00000ED00E0BFF35F8F024B0022C3F894205C
:105A0000704700BF00ED00E010B5034C0123227881
:105A1000FFF7B0FF207010BD31FD28200B4A08B5FC
:105A200000231278FFF7A6FF10F1160F07D0084ADF
:105A30000021D2F89030C3F30723984200DB08BD61
:105A4000C2F898000130C2F8A010F2E731FD28201A
:105A500000ED00E06A496B482DE9F043D1F8903041
:105A600085B00268C3F307239A4200F2C580FFF7AE
:105A7000C1FF4B69DB031ED50023C1F88430BFF39F
:105A80004F8FD1F8803043F6E075C3F3C904C3F3F8
:105A90004E335B0103EA0507224647EA8276013A64
:105AA000C1F87462F9D2203B13F1200FF2D1BFF399
:105AB0004F8FBFF36F8FD0E9004100225048A242C0
:105AC00001F10C011AD1504C684600254F4F22704D
:105AD000FEF79CF8DFF838810646DFF83891AE42D1
:105AE0001FD1237800204649D1F89020C2F3072225
:105AF00093427BDB0020FFF771FF4CE0C0F8982059
:105B000051F80C3C23F01F031343013243F0100300
:105B1000C0F89C3051F8043C43F00103C0F8A030B9
:105B2000CDE700984FEA051C00EB0511CB683B4020
:105B3000B3F5000F44D00AD8B3F5001F2ED0B3F54B
:105B4000800F34D0B3F5801F10D00135C7E7B3F113
:105B5000807F3ED0B3F1007FF7D150F80C308868D9
:105B600012F09AFD4A6840F4802009E050F80C30A9
:105B7000886812F091FD40F088504A6840F4302067
:105B8000039001A92078CDE90123FFF7C9FE002881
:105B900028DA6FF0150005B0BDE8F08350F80C303E
:105BA000886812F079FD4A6840EA0800E8E750F892
:105BB0000C30886812F070FD4A6840EA0900DFE79F
:105BC00050F80C30886812F067FD4A6840F0827027
:105BD000D6E750F80C30886812F05EFD4A6840F055
:105BE0008870CDE7237801332370AEE7C1F8983091
:105BF0000133C1F8A00077E74FF0FF30CBE700BFDB
:105C000000ED00E0582F026031FD28200000F0FF79
:105C1000000008110000020708B5024B1B689847F6
:105C2000002008BDDCF32820034B044A1860937859
:105C300043F0020393707047DCF32820D8822820B9
:105C4000F0B587B007460E4614460021102268467C
:105C50001D461CF021FD02232A4621468DF8023004
:105C60006846044BCDE90476019311F0D1F907B0F1
:105C7000F0BD00BFB98601600649074821F0070161
:105C8000C1F1005208B502F5301211F074FE002087
:105C900008BD00BF3F2A2920E0F32820F0B5114DB0
:105CA00085B0114E114F4FF0FF334FF0FF3201A975
:105CB000284610F071F8034688B101213A460C4895
:105CC00012F09FFAEFE7236813B1019A934202D1D1
:105CD000636801A898470834B442F4D3E3E7054C5D
:105CE000FAE700BFCC842820282F02603B5B0260CB
:105CF000982E0260182F02601FB501909DF81800C1
:105D00008DF809108DF80800ADF80A200393DDE93D
:105D1000082301A902480FF0EFFF05B05DF804FB6E
:105D2000CC842820014813F0A7BF00BF808628201C
:105D300010B58AB00022002300241249CDE90623C1
:105D40006FF00D034FF4806201F588600094CDE997
:105D50000334CDE901440C4B10F05EFB0B490C48B9
:105D60001CF039FA09AA21460A4813F04BF800281A
:105D700005DB099B22461979186813F056F80AB01A
:105D800010BD00BF80872820995D0060505B0260D5
:105D9000C08B282070300260F0B5674D87B0674C2B
:105DA0004FF0FF324FF0FF3303A928460FF0F4FF06
:105DB0009DF81420A2F11003052B6BD8DFE803F047
:105DC0000360656A6A5B0026E3680E21A0683246BC
:105DD00084F8D4605B6998473246D4F8DC301344C9
:105DE000997D6FF341019975D4F8DC301344183272
:105DF000997DB2F5C07F6FF300019975EDD1402711
:105E0000D4F8DC30002601AA9F820221E368A06852
:105E10005B6901978DF808609847D4F8DC3002215F
:105E2000A0689A7D66F341029A75D4F8DC20937DD0
:105E300043F001039375802301AA8DF80630D4F84E
:105E4000DC309F85E3685B699847D4F8DC303146E5
:105E5000012093F82E2066F3410283F82E20D4F817
:105E6000DC2092F82E3043F0010382F82E30D4F873
:105E7000D830984794E70021D4F8D8300846F8E79E
:105E8000D4F8D83000210520F3E7D4F8D830002129
:105E90000620EEE7D30903EB420303F0FF030F2BC9
:105EA00047D8D4F8DC7003EB430303AA07EBC3061F
:105EB00003CA47F8330071601068B060D4F8DC1092
:105EC00001EBC3031E7AF20902EB460202F0FF0067
:105ED000D2B202EB4202D70001EBC202917D6FF316
:105EE000410191755A6801323FF45AAF5B7AE3B9C8
:105EF00033061CD594F8D43063B101280AD1E36885
:105F000008210F4A5B69A068984700287FF448AFD2
:105F100084F8D4000221D4F8DC303B441B69002B08
:105F20003FF43EAF304698473AE70021F3E70121BE
:105F3000F1E707B0F0BD00BF448528208086282007
:105F40005487282038B5134C134BC4F8DC3094F830
:105F5000E030D3B9114B04F1080221460220E3607E
:105F600002F0E2FB054690B9024601217120FFF7DD
:105F7000C7FB7120FFF7B6FB01232A46294684F8A8
:105F8000E030E368A0685B699847002038BD6FF097
:105F90000400FBE780862820ECF32820783002609C
:105FA000084B142110B5DA6883F8D4009868546956
:105FB00003F1D402A047002814BF6FF015000020A1
:105FC00010BD00BF808628202DE9FF4102780446DD
:105FD000344DD3098DF80A20D5F8DC6003EB420379
:105FE00003F0FF01DBB203EB43030F294FEAC307C2
:105FF00006EBC3064FF000038DF80C304388ADF874
:10600000083003798DF80B3042D8B37D13F00108C6
:106010003AD1EB6803218DF807200DF107025B6987
:10602000A8689847F16821B11F481CF01CF8C6F811
:106030000C800022002361881B481CF00AF8F060E5
:1060400048B3628800211CF027FBD5F8DC30628859
:1060500002213B44A8689A8202AAEB685B699847D0
:10606000E0B923785A0608D11B0606D4D5F8DC30EF
:106070003B449A7D42F002029A75D5F8DC303B44ED
:106080009A7D42F001029A75002004B0BDE8F081CB
:106090006FF01500F9E76FF00B00F6E76FF0040002
:1060A000F3E700BF80862820A4842820C30903EBDF
:1060B000400303F0FF030F2B13B58DF807000ED834
:1060C000084B0421DA68986854690DF10702A0476B
:1060D000002814BF6FF00400002002B010BD6FF064
:1060E0001500FAE780862820F7B5C40905468DF823
:1060F000070004EB400404F0FF040F2C29D8164ECF
:106100000DF107020521F368B0685B69984718B183
:106110006FF0040003B0F0BD6A0618D02B0616D449
:1061200004EB4404D6F8DC20F368294602EBC402F1
:10613000B068E700DC68938AD268A0470028E7D1FE
:10614000D6F8DC303B449A7D42F002029A7500207A
:10615000E0E76FF01500DDE780862820C30903EB38
:10616000400303F0FF030F2B37B50C4613D891B152
:1061700000238DF804000B700721ADF80630094BA1
:10618000DA689868556901AAA84738B9BDF8063099
:10619000237003B030BD6FF01500FAE76FF0040014
:1061A000F7E700BF80862820C309014603EB4003C0
:1061B00013F0FF0370B51ED00F2B23D8164C03EB42
:1061C0004303D4F8DC20DD0002EBC302937D9E077D
:1061D0001BD4480611D00B060FD4E368A068DE6814
:1061E000938AD268B04798B9D4F8DC302B449A7DB2
:1061F00042F002029A75002070BD937D43F00203C5
:106200009375F8E76FF01500F6E76FF07700F3E7A6
:106210006FF00400F0E700BF8086282038B5C4097D
:10622000014604EB400404F0FF040F2C1ED8114D6E
:10623000A86898B9D5F8DC3004EB4404002003EBDF
:10624000C4039A7D6FF300029A75D5F8DC3003EB36
:10625000C4039A7D6FF341029A7538BDEB681B69E0
:1062600098470028E6D06FF00400F6E76FF01500BD
:10627000F3E700BF80862820F8B5C40915461E46FE
:1062800004EB400404F0FF040F2C1FD803061DD5B7
:10629000114F04EB4404D7F8DC3003EBC4039C8AB1
:1062A000DA68AC4228BF2C460025AC420AD1FB6814
:1062B0000146B8689D682346A84750B906B13460C6
:1062C0000020F8BD4B5D53550135EEE76FF015002A
:1062D000F7E76FF00400F4E780862820F0B5C409E2
:1062E0002E4E04EB4004D6F8DC7004F0FF0EE4B24E
:1062F00004EB44044FEAC40C07EBC404A57D15F07D
:10630000020548D1BEF10F0F02D96FF01500F0BDA4
:1063100010F0800FF9D149B157F80CC067687C1CA8
:106320000DD1002BF1D000221A60EEE7002AECD14B
:106330006268511CF5D003B11A600020E7E797426C
:106340002C4628BF1746A7420ED103B11C60002877
:10635000F3D1D6F8DC30587A196890B1CB8843B9BC
:10636000002386F8E130E8E71CF804500D550134AD
:10637000E9E791F90030002B01DA0123F1E702236C
:10638000EFE796F8E1100029D7D0A242E8D99B8A1E
:106390009C42E5D3D1E76FF00F00B8E78086282054
:1063A000C309014603EB400303F0FF030F2B70B555
:1063B00024D8020622D4164C03EB4303D4F8DC2085
:1063C000DD0002EBC302937D9B071AD430B994F829
:1063D000E1308BB1012B08BF84F8E100E368A068CD
:1063E000DE68938AD268B04770B9D4F8DC302B44A9
:1063F0009A7D42F002029A75002070BD6FF0150080
:10640000FBE76FF00F00F8E76FF00400F5E700BF5F
:1064100080862820C30903EB400000F0FF000F280E
:106420000CD8084B93F8E02042B100EB4000D3F8C1
:10643000DC3003EBC0030020196170476FF01500DA
:10644000704700BF80862820014BC3F8D8007047F2
:1064500080862820C30903EB400000F0FF000F28CE
:106460009FBF064B00EB4000D3F8DC3003EBC003CA
:1064700094BF988A6FF01500704700BF808628206F
:1064800008B50022002302480FF036FC002008BDAA
:1064900044852820B1F5A06F38B5144613D0B1F566
:1064A000706F32D0B1F5407F2BD11A4D6B6A5A060E
:1064B00019D4194801F0EEF86B6A062203F03F0385
:1064C000B0FBF2F00AE0134D144AAB69C3F30113B9
:1064D000D05C01F0B3FAAB69C3F382630133B0FB64
:1064E000F3F020600DE00E4BD3F87032DB060AD4D7
:1064F0000C4B1A686B6A03F03F030133B2FBF3F2F3
:106500002260002038BD084AF4E7022001F010FBA9
:10651000E7E700BF00C00F400D001000745B026091
:1065200000800D40F4F5282000366E0108B50748BC
:106530001BF016FD38B10648FFF776FB0448FCF760
:1065400065FD002008BD6FF01200FBE7E027026048
:10655000556500600A2838B50446074D04D1AB687C
:106560000D2128465B689847AB68E1B202485B683A
:106570009847204638BD00BFE027026008B5044AAE
:106580000221044811F034FE6FF0850008BD00BF01
:10659000785B0260E02E0260F0B585B004460A2107
:1065A0006FF00103456800AF686C80FB0101181AA9
:1065B0004FF0FF3363EB010110F0DEF96368204612
:1065C0009B6A98470646D8B92B6B204698476C467D
:1065D00088B06A465F4BC2E905304FF4007393837D
:1065E0005D4B42F8103F4FF4E25133465B486FF089
:1065F0001505FDF74DF8A54628461437BD46F0BDF4
:106600002B6ADBB96568A42223693A7195F84020AA
:10661000002A15BFA721A6210422022279711A702F
:106620002B6A93B9204612F093F800B34C4A01212B
:106630004A486FF0040511F0DBFDDDE705F12000AD
:1066400012F0CFF8051EDDDAD6E7203500210A204A
:1066500010F092F90121284612F0DEF800210A20FC
:1066600010F08AF90021284612F0D6F8DAE748F24D
:10667000D502636807F1080120463A81D922BA722F
:10668000062293F83C30FB7242F2DB03BB8101230C
:1066900012F04CF80028C9D163684DF2403207F17E
:1066A000080120463A8193F83A20BA72DA22FA7247
:1066B00093F83F20002A0CBF122202223A73A8222C
:1066C0007A73072293F83B30BB73012312F02EF844
:1066D0000028ABD1626807F10801204692F83D30EE
:1066E000603B3B7292F83E300222002B0CBFC0236D
:1066F000C8237B72012312F019F8002896D1636831
:1067000007F10801204693F84130002B15BF8B2379
:106710001423AD228D227B7233233A720322BB7283
:10672000012312F003F8002880D101230222391D31
:10673000204611F0FBFF00287FF478AF802120462F
:1067400012F012F8054600287FF470AF204611F0D1
:10675000F3FF51E7915B026003000001E02E02604D
:10676000AA5B02602DE9F347B3F808C00646B3F808
:1067700004901C460A9FCC45D0F804A009D2404A98
:106780000121404811F034FD4FF0FF3002B0BDE868
:10679000F087B3F806E01B680EFB09F5ED109D428B
:1067A00028BF1D4607B10DB9374AE9E7CC4501D9E5
:1067B000364AE5E712F0070C01D0354AE0E7CBB2E4
:1067C0009AF84110C2F3C708A1B39AF83810B94635
:1067D000E246194401F00F03C1F3031141F0100127
:1067E0008DF800308DF801105FFA8AF3E288B3EB80
:1067F000D20F01D30020C9E7434403226946304643
:1068000063F04F038DF80230012311F08FFF034630
:106810000028B9D1A2884946304611F087FF0028E8
:10682000B2D1A3880AF1010A99447B199945DBD9B1
:10683000184AA5E78DF80330013B20218DF806802A
:106840004B44ADF8001021218DF8043022238DF83F
:10685000021069468DF8053002EB0E030822DB10AA
:10686000013B8DF80730012311F060FF034608B1AA
:10687000094A85E72A463946304611F057FF85E731
:10688000C75B0260E02E0260E35B0260035C0260B3
:10689000145C0260275C02603E5C026073B51A4CB7
:1068A0000829D4F8306428BF0821D4F83054D4F82B
:1068B0003024D4F830342D0A12021B0605F47F452B
:1068C00002F47F0243EA16632B4313430093D4F888
:1068D0002064D4F82054D4F82024D4F820342C0A8E
:1068E0001B0604F47F4443EA1663234314020A465A
:1068F00004F47F0423430C46694601931BF0A4FE75
:10690000204602B070BD00BF00401F4003462DE985
:10691000F04153F8185D044686B06968CA689B1A4E
:10692000184A1B1153438A68D618D0583779D0F8C3
:106930001080836805A95B68984748B9059BD8F81B
:1069400000205A400123BB401A4214BF01200020FE
:1069500014F9083C834211D004F8080C031E328954
:106960004FF0FF374FF0FF364FF0010118BF012302
:1069700028460091CDE90267FFF7BEF906B0BDE8F1
:10698000F08100BF9C9999992DE9F04F87B04FF0A5
:1069900000094FF0010B466802AFF568F860183542
:1069A000BD6073684B4505DC337D002B40F097805C
:1069B000002423E00C23D6F808A003FB09F80AEB17
:1069C00008045AF808001BF0CBFA0346D8B95AF865
:1069D00008206C4688B0116802AA4548C2E9050142
:1069E0004FF400719183434942F8101F4FF4E25174
:1069F0004148FCF74DFEA5466FF0120420461437BF
:106A0000BD46BDE8F08FE3885AF80800217943F4C9
:106A10008032046913F0010F0BFA01FCD0F808E092
:106A2000236814BF4CEA030323EA0C032360DEF857
:106A300000309847044638B1304A4B460090012157
:106A40002D4811F0E8FBD9E7FB68284645F8183CCB
:106A500031691BF0AEFB337D002B3CD1D6F808A08A
:106A6000A5F114010AEB08031A797B600BFA02F214
:106A7000234B45E904325AF808008268D4696CB1A6
:106A80000122A047041E7B680BDA1E4A01211A4826
:106A900011F0AEFB1C4A4B460094D0E76FF0570450
:106AA000F3E7FF2205F8082C5AF8080019798368E3
:106AB0009C696CB14FF0C0634FF0A072A047041EF8
:106AC00009DA124A234601210B4811F09AFBE1E74B
:106AD0006FF05704F5E709F10109503561E73268B5
:106AE0000A23B868A2FB03230FF042FC60E700BF53
:106AF000E65C026003000001902E0260F65C02601A
:106B0000DF8B0160165D0260325D0260395D0260FC
:106B100000292DE9F7430CBF4FF400164FF0E8664B
:106B20000546002400F1040806F0C06955F8340059
:106B300018F8341083689F6977B14B4606F0B0723D
:106B4000B84760B1084A234600900121074811F078
:106B500062FB03B0BDE8F0836FF05700F2E7002C52
:106B6000F7D10124E2E700BF325D0260A02E02608F
:106B70002DE9F04100AFD0F83480D8F810404046FD
:106B8000D8F8046012F0A6F894F840300546834225
:106B90005AD0D8F804301B6A4BB1BFF35B8FD4F8DE
:106BA0009430BFF35B8F13B9404612F0FEF894F8AF
:106BB000403045EA0313202B4FD048DC102B04D083
:106BC00006DC012B1CD0022B04D14FF0FF3317E061
:106BD000132B42D0D8F80030E84688B06A462049E6
:106BE000C2E905134FF4007393831E4B42F8103F24
:106BF00000234FF4E4511C48FCF74AFD0023C5462E
:106C000084F84050EFF31181102282F31288BFF311
:106C10006F8F626C1A44626481F31188BFF36F8FC7
:106C2000636C96F82A20002BB8BF5B42934203DBCB
:106C300004F148000FF000FB736A0A2204F15800C7
:106C4000A3FB02230FF094FBBD46BDE8F081312B7E
:106C5000BBD0322B01D0232BB6E70123D0E700BFF6
:106C6000665D026003000001A02E02602DE9F04F76
:106C700083B0044655490669D0F8048002AF304617
:106C800040F8484B1BF069FA06F1580050491BF0D8
:106C900090FA00224F4906F108001BF04AFC01223D
:106CA000F46398F8043006F1880B98F80C104FF054
:106CB000000902FA03F38A401343474AC6E9232333
:106CC00008EBC90558F839001BF04AF90346D0B95A
:106CD00058F839206C4688B0116802AA3F48C2E9CA
:106CE00005014FF4007191833D4942F8101F4FF4A4
:106CF000E2513C48FCF7CCFC6FF01205A54610E0D1
:106D00004FF00109DCE728464FF4803111F072FFA3
:106D1000054658B1344A4B4600900121314811F0E4
:106D20007AFA28460437BD46BDE8F08F63681B6ACF
:106D3000A3B958F839008368DB6963B10122594669
:106D40009847B0F1000A09DA284A0121254811F0D4
:106D50004FFA5546E5E76FF0570AF5E7B9F1000F2E
:106D6000CED04FF0000998F814304B4508DC20468F
:106D700011F0B0FF86F84000204611F0E3FFD0E7A5
:106D8000D8F810B00BEBC90A5BF839001BF0E8F833
:106D9000034610B95BF839209CE7636850461B6ACC
:106DA000002B0CBF4FF4D0114FF4B01111F022FFA3
:106DB000824638B10C4A4B4600900121094811F037
:106DC0002AFAC6E709F10109CDE700BF5F8C01602F
:106DD000A38D0160716B0060F98D0160E65C02605B
:106DE00003000001A02E0260F65C0260165D0260E6
:106DF000124B03F1780252E8002F42F00C0203F12B
:106E0000780040E800210029F3D103F1700252E834
:106E1000002F42F0300203F1700040E80021002909
:106E2000F3D103F1780252E8002F42F0300203F16F
:106E3000780141E800200028F3D1704700C00F40DE
:106E40002DE9F04F83B006464FF00109D0F80480D9
:106E5000D0F810A000AFD8F80C309847DAF84450BA
:106E6000DAE9113203EBC2039D421AD30AF13C0561
:106E7000284612F06CFACAF800603A1D0021D8F8D2
:106E80001C0011F0BFFF041E28DB7B68002219796B
:106E9000186811F0CAFF044600BB284612F057FAE2
:106EA0001CE028681BF05CF80346E0B92A686C46D1
:106EB0008AB0297910686A46D1614FF400711A4D81
:106EC00011841A49C2E9055042F8101F4FF41151BC
:106ED0001748FCF7DDFBA5466FF0120420460C377F
:106EE000BD46BDE8F08F28682979EB88DA07046988
:106EF00009FA01FBD0F808C054BF43F4B01383F47F
:106F0000D013D4F800E023F48012DB074CBF4EEA24
:106F10000B032EEA0B032360DCF800309847041EB5
:106F2000DCDB08359CE700BFA45D026004000001C3
:106F3000D82E0260F0B585B006460469436800AFFC
:106F4000D4F88C201868D4F88430E56BCBB94ABBF0
:106F50006DB1AB685BB1A98811F4805607D128697F
:106F60001AF0EEFFE06B3146083012F0DCF9002336
:106F7000E36604F15C000FF01BF800201437BD46F7
:106F8000F0BDE988090141F48011F960D4F880105E
:106F9000002A38D0D4F888509342C7E9001534D07D
:106FA00033D908E0E9883B600901D4F8883041F41E
:106FB00080117B60F960BA60BB68211D3A46C4F855
:106FC000903000F0B5FF04460028D6D06D468AB058
:106FD00033686A460E49D061C2E905134FF4007365
:106FE00013840C4B42F8103F0B4800234FF411510F
:106FF000FCF74EFBB4F5C87FAD4614BF6FF015002B
:107000006FF00F00BAE7C7E90012BB60D4E700BF1A
:10701000C85D026004000001D82E026010B51C4655
:10702000D3F89020D3F8843033B19A4213D9274A49
:107030000121274811F0DCF8D4E9233233B19A4218
:1070400026D9224A0121224811F0D2F82068BDE851
:107050001040FFF76FBF9B1AC4F8843083B9236FC9
:1070600004F1840204F1740104F170000833236711
:10707000636F013B636712F043F9C4F88000DBE7FC
:10708000D4F88030002BD7D01344C4F88030D3E735
:107090009B1AC4F88C3083B9A36F04F18C0204F1FD
:1070A0007C0104F178000833A367E36F013BE367D9
:1070B00012F026F9C4F88800C8E7D4F88830002B0D
:1070C000C4D01344C4F88830C0E700BFEB5D026051
:1070D000D82E02602DE9F04F98468B880D468DB072
:1070E000990407469146046929D44FF0FF324FF0C6
:1070F000FF3304F14C000EF07FFF2564D7F810B089
:107100007E68DBF83C30D6F800A09D427FD0AB888B
:107110001A051BD56FF085057A4A01217A4811F0CE
:1071200067F8E36B9B8813F4005304D1236404F1E4
:107130004C000EF03DFF28460DB0BDE8F08F636DAA
:10714000002BD2D1236C9D42CFD1D7E704A800F009
:10715000E3FDEB88042B09D9042201216A4800923F
:107160006A4A11F058F86FF01505DAE7AB88C3F3F7
:1071700045120592C3F340028DF81820C3F3800234
:10718000C3F300138DF819208DF81A302B6804937F
:107190003369079373690893B369099396F82030AC
:1071A0008DF82A3070681AF0DBFE38B9584A012190
:1071B00055486FF0120511F01BF8B2E7D6E901014E
:1071C0008368DB68002BCED003AA98470028CAD179
:1071D000DBF83C304BB1DAF8103023F00103CAF889
:1071E0001030DAF81030DB07FBD4039A04A95046BC
:1071F00000F0F6FD5B46474A0BF10401504600F0F3
:107200007BFE0021504600F07FFDCBF83C50B9F1E9
:10721000000F57D1C4F87090002304F1840204F1E8
:10722000740104F17000636712F06AF8C4F880001A
:10723000B8F1000F4ED1C4F878800023E36704F161
:107240008C0204F17C0104F1780012F059F800235B
:10725000C4F88800E06BE36648B183683BB1012164
:10726000083012F060F8E36B18691AF069FE3846CE
:10727000FFF760FE054600287FF453AF616F0346B9
:107280008B422FD10023E06F1A46824231D1AB42AC
:107290004FF4FA5238BF2B465A43E36B1B68B2FBDC
:1072A000F3F20A23C832A2FB032304F15C000EF0C0
:1072B000A3FE28B3184A012113486FF0730510F09C
:1072C00097FF2EE7D9F800302367002BA4D0D9F818
:1072D0000430A2E7D8F80030A367002BADD0D8F86F
:1072E0000430ABE7226F02EBC3020133526815444E
:1072F000C6E7A16F01EBC201013249680B44C4E744
:10730000E56E0EE7095E0260D82E0260235E026021
:107310003F5E02601D7000605E5E02604FF0E02321
:107320000F4910B59C691A6908689B6902F480329C
:107330000C4934B993B903464AB90A681044C01AD3
:1073400010BD002B08BF03460AB9A342F5D90A684D
:1073500002440A604FF0E0221269EEE70446F3E7C8
:10736000ECF52820E8F528200A4B1022002083F8AD
:1073700023204EF66022084B1A604EF65F22074B20
:1073800018604FF0E0235A6198611A6942F00702D1
:107390001A61704700ED00E0ECF52820E8F52820A0
:1073A00010B5FFF7BBFF1049104B0868D3E9004246
:1073B000001942F10002C3E900020D4A00230B60EC
:1073C0004EF66023D2E90041001BB0FBF3F04343CB
:1073D0001B1941F10001C2E900310FF079FCBDE851
:1073E0001040FDF79DBE00BFE8F5282060AF2820C3
:1073F00058AF28202DE9F041DFF8E08099B1421C18
:107400000BD14FF0E022136923F0010313614FF019
:107410007F43C8F80030BDE8F081D8F8006001284B
:1074200007DC00270BE0431CD8F80060F7D14FF4CD
:107430008B7040F217139842A8BF1846471EEFF30F
:107440001185102383F31288BFF36F8FFFF766FF58
:10745000234C4FF0E0239969D4E9002380184FF0C2
:10746000000243F10003C4E900031E4B1A601E4BE7
:107470001A68831A2ED44EF6602C0CFB073303F5E2
:107480006A435F33B3FBFCF7131A40F6A6620CFBAA
:107490000733934238BF1346144A934228BF13461A
:1074A000C8F800304FF0E022013B9069536100239F
:1074B00081429361A1EB0003D4E9001238BF9B190C
:1074C0005B1842F10002C4E9003285F31188BFF372
:1074D0006F8FA0E740F6A663E2E700BFECF5282037
:1074E00060AF2820E8F5282058AF28204084FE000F
:1074F00038B5EFF31185102383F31288BFF36F8F34
:10750000084B1C68084B1B68E41AFFF707FF85F35C
:107510001188BFF36F8F4EF660232044B0FBF3F069
:1075200038BD00BF60AF282058AF282038B5EFF332
:107530001185102383F31288BFF36F8F044B1C68EF
:10754000FFF7ECFE85F31188BFF36F8F204438BD41
:1075500060AF2820044BD3F87032DB0602D4034B13
:10756000186870470248704700800D40F4F52820E5
:1075700000366E01104AD2F8803043F00303C2F89F
:10758000803002F5F212D2F8403143F00203C2F823
:1075900040310A4B00BF013BFCD1094A0120D2F81F
:1075A000203123F4F85323F0010343F4B85343F09C
:1075B0000103C2F82031704700C00F40801A060056
:1075C00000800D400F4A037911689B0321F4E031DC
:1075D0009BB20B4343F4803313601168036821F4BA
:1075E000415103F07F0321F03F010B4343F400536B
:1075F00013601368002BFCDA136823F480331360E4
:10760000704700BF00800D400F4A437811699B030B
:1076100021F4E0319BB20B4343F4803313611169D1
:10762000037821F441515B0021F0020103F00203D1
:107630000B4343F4415313611369002BFCDA1369C4
:1076400023F480331361704700800D4008B50E4B62
:107650001A69920414D51A6942F040021A610B4B60
:1076600001201A6B22F000421A631A6B22F080424A
:107670001A6300221A601A6B42F4C6121A6308BD1C
:107680000348FFF7C1FFEAE700800D4000900D407E
:10769000AD5E0260C0F30B41024600F01F0001F135
:1076A000804101F5582170B50B68C340D80719D542
:1076B0000B6813F4404F18D1FFF74CFF04460B68DA
:1076C00013F480330FD152498A424AD021D8A1F510
:1076D000A0018A4200F0988009D80D2A31D04D4B84
:1076E0009A4235D00024204670BD0024E7E74A497D
:1076F0008A42F7D1494D286D2A6EA4FB0001FAF7A2
:10770000DFFD2B6BDB074CBF1623142363431C18D0
:10771000E9E743498A4271D00ED842498A4245D0AE
:10772000414B9A42DED13D4BD3F8E03003F00303E6
:107730003E4A52F82340D6E73D4B9A42D2D13D4CC7
:10774000D1E7364B1B6803F07F0363435C08CAE74D
:10775000324B1B6913F0020F0CBF142316235C433A
:10776000C1E72E4D2E6FD5F88000D5F8902006F099
:107770007F06A4FB0001FAF7A3FD2B6F664313F409
:10778000C01306EB00040DD0B3F5002F0CD0D5F8D4
:107790007031294A1340B3F5004F2DD09342A2D146
:1077A000A408A0E7A408F2E76408F0E71B4DD5F8A9
:1077B000A060D5F8B000D5F8C02006F07F06A4FB85
:1077C0000001FAF77DFDD5F8A030664313F4C0132D
:1077D00006EB00040CD0B3F5002F0BD0D5F87031B8
:1077E00003F04043B3F1804F06D0B3F1404FD6E7EA
:1077F000A408F3E76408F1E7640874E7074BD3F8DB
:10780000E030C3F3810393E7044B1B6AA2E700BF98
:107810000D0070000D0010000D00300000800D40C4
:107820001400E0000D00A0000D00E000E047026041
:107830001500E00040787D0100808000044BDB688B
:10784000DB0702D40348FFF725BF0348704700BF9A
:1078500000C00F400D00100000366E0110B5044648
:107860001348FFF717FF032C1FD8DFE804F0020CC2
:107870001218104BD3F8003103F03F03B0FBF3F0C4
:107880001223584310BD0B4BD3F80031C3F305232B
:10789000F4E7084BD3F80031C3F30543EEE7054B9B
:1078A000D3F80031C3F30563E8E70020E8E700BF41
:1078B0000D00300000800D4010B5204C6069A369B8
:1078C00010F000701AD003F44053B3F5805F07D076
:1078D000B3F5005F0ED07BB91948FFF7DBFE01E07E
:1078E000FFF738FE154B5B69C3F3C2630133B0FB8E
:1078F000F3F00DE01348F0E70020F3E703F4402332
:10790000B3F5002F15D004D86BB1B3F5802F0FD08D
:1079100010BDB3F5402FFBD10D20FFF7BBFE23694F
:1079200003F00703E2E70748BDE81040FFF7B2BEE7
:107930000220BDE81040FFF791BF00BF00C00F401C
:107940000D0010000D00300008B5FFF7B5FF044B27
:107950005B69C3F382230133B0FBF3F008BD00BFC2
:1079600000C00F4008B5FFF7EFFF044B5B69C3F39E
:1079700001230133B0FBF3F008BD00BF00C00F408E
:1079800010B5084CE3695B0608D5FFF7E3FDE36932
:1079900003F03F030133B0FBF3F010BDFFF7E2FF4C
:1079A000F5E700BF00C00F4010B504461348FFF7CD
:1079B00071FE032C1FD8DFE804F0020C1218104BE4
:1079C000D3F8F03003F03F03B0FBF3F01223584339
:1079D00010BD0B4BD3F8F030C3F30523F4E7084B8D
:1079E000D3F8F030C3F30543EEE7054BD3F8F0309E
:1079F000C3F30563E8E70020E8E700BF0D001000CF
:107A000000800D4010B50C4C63695A0610D56369AF
:107A10001B0609D50120FFF7C7FF6369C3F30243C3
:107A20000133B0FBF3F010BD0220FFF717FFF4E7BE
:107A3000FFF742FFF1E700BF00C00F4008B51B2869
:107A400063D8DFE800F0111115191D210E252A2C2D
:107A5000313335494B4D525456585A5C5E60373B72
:107A60003F434FF4004008BDBDE80840FFF76CBF3E
:107A7000BDE80840FFF7C6BFBDE80840FFF772BF8A
:107A8000BDE80840FFF77CBFBDE80840FFF762BDD6
