:0200000460009A
:10000000464346420004015600000000010303007D
:1000100000000000000000000000000000000000E0
:1000200000000000000000000000000000000000D0
:1000300000000000000000000000000000000000C0
:1000400000000000000406000000000000000000A6
:100050000000800000000000000000000000000020
:100060000000000000000000000000000000000090
:100070000000000000000000000000000000000080
:10008000EB04180A063204260000000000000000FD
:100090000000000000000000000000000000000060
:1000A0000000000000000000000000000000000050
:1000B0000000000000000000000000000000000040
:1000C0000000000000000000000000000000000030
:1000D0000000000000000000000000000000000020
:1000E0000000000000000000000000000000000010
:1000F0000000000000000000000000000000000000
:1001000000000000000000000000000000000000EF
:1001100000000000000000000000000000000000DF
:1001200000000000000000000000000000000000CF
:1001300000000000000000000000000000000000BF
:1001400000000000000000000000000000000000AF
:10015000000000000000000000000000000000009F
:10016000000000000000000000000000000000008F
:10017000000000000000000000000000000000007F
:10018000000000000000000000000000000000006F
:10019000000000000000000000000000000000005F
:1001A000000000000000000000000000000000004F
:1001B000000000000000000000000000000000003F
:1001C000000100000010000000000000000000001E
:1001D000000004000000000000000000000000001B
:1001E000000000000000000000000000000000000F
:1001F00000000000000000000000000000000000FF
:1002000000000000000000000000000000000000EE
:1002100000000000000000000000000000000000DE
:10100000D10020410020006000000000000000002E
:1010100020100060001000600000000000000000D0
:1010200000000060C0CB020000000000FFFFFFFFD7
:1010300000000000000000000000000000000000B0
:1010400000000000000000000000000000000000A0
:101050000000000000000000000000000000000090
:101060000000000000000000000000000000000080
:10200000002B2920D15B0060C1910160BD5B0060A5
:10201000BD5B0060BD5B0060BD5B00600000000058
:10202000000000000000000000000000D95C00601B
:10203000BD5B006000000000A55C0060557D006095
:10204000495E0060495E0060495E0060495E006074
:10205000495E0060495E0060495E0060495E006064
:10206000495E0060495E0060495E0060495E006054
:10207000495E0060495E0060495E0060495E006044
:1022C00053B94AB9002908BF00281CBF4FF0FF319D
:1022D0004FF0FF3000F00CB8ADF1080C6DE904CE02
:1022E00000F008F8DDF804E0DDE9022304B07047EF
:1022F000704700BF2DE9F04786468C460846089E89
:10230000154674461946002B40F0C2808542B2FA49
:1023100082F245D94AB1C2F1200300FA02FC2EFA3A
:1023200003F3954043EA0C0C94404FEA154EA8B2D3
:10233000BCFBFEF8230C0EFB18CC08FB00F943EAAB
:102340000C43994528D9EB1808F1FF3704D2994579
:1023500002D9A8F102072B44A3EB0903A4B2B3FBF3
:10236000FEFC0EFB1C330CFB00F044EA0344A042CD
:1023700014D92C190CF1FF3304D2A04202D9ACF1CC
:1023800002032C44241A43EA07401EB1D440002320
:1023900034607360BDE8F0874746DDE76346F1E7E8
:1023A00092BB431B01214FEA154EAFB2B3FBFEFCBB
:1023B000200C0EFB1C330CFB07F840EA0343984546
:1023C00062D9EB180CF1FF3004D2984502D9ACF178
:1023D00002002B44A3EB0803A4B2B3FBFEFC0EFBEC
:1023E0001C330CFB07F744EA0344A7424ED92C19CF
:1023F0000CF1FF3304D2A74202D9ACF102032C4402
:10240000E41B43EA0040C0E7C2F1200320FA03F1D5
:10241000954090402EFA03F303434FEA154EAFB2B6
:10242000B1FBFEFC0EFB1C10190C0CFB07F841EA7B
:102430000041884504FA02F422D969180CF1FF30F2
:1024400004D2884502D9ACF102002944A1EB08016D
:102450009BB2B1FBFEFC0EFB1C110CFB07F743EA21
:1024600001439F420ED9EB180CF1FF3104D29F4279
:1024700002D9ACF102012B44DB1B41EA004192E797
:102480006046E3E76146F7E76046A3E76346B7E7E0
:10249000834206D916B9002108467BE7C6E900E069
:1024A000F9E7B3FA83F78FB9834201D3724508D8AD
:1024B000BEEB020460EB030301209C461EB9002121
:1024C00068E73846FAE7C6E9004CF8E7C7F1200CA0
:1024D000BB4022FA0CF41C432EFA0CF120FA0CF348
:1024E000B84001434FEA14490EFA07F5B3FBF9F877
:1024F0001FFA84FE09FB18300B0C08FB0EFA43EAA6
:1025000000439A4502FA07F240D9E31808F1FF3078
:1025100004D29A4502D9A8F102002344A3EB0A038E
:1025200089B2B3FBF9F809FB183308FB0EFE41EA48
:1025300003418E452CD9611808F1FF3304D28E4532
:1025400002D9A8F10203214443EA0040A0FB02980B
:10255000A1EB0E014145CE46434602D306D14D457F
:1025600004D2B9EB020E68EB04030138002EA6D0AA
:10257000B5EB0E0261EB030101FA0CFC22FA07F342
:102580004CEA0303F940C6E9003198E74046C5E745
:102590004346D9E710F8012B11F8013B012A28BF67
:1025A0009A42F7D0D01A7047034611F8012B03F86E
:1025B000012B002AF9D17047034613F8012B002A9A
:1025C000FBD1181A013870472DE9F04F85B08846C5
:1025D00043490292026E0190C2F3C2628A5CB3FB6D
:1025E000F2F6029B3246032B4FF000033DD101244B
:1025F00035A1D1E90001FFF763FE324607468A465E
:10260000002333A1D1E90001FFF75AFE05464745F3
:102610007AF1000A39D2334B01344FF0FF3B4FF0CF
:10262000FF09A4FB034A00270393324600232046F8
:102630005146FFF745FE4045034607F1010271F19F
:10264000000103D3A0EB080058452AD3B2F5807FE0
:1026500024D0039B58464F46E4182B464AF1000A03
:10266000B946834617461D46DFE71BA1D1E90001A5
:10267000FFF726FE324607468A4600231A483B21CA
:102680000024FFF71DFE0546C1E701980021029ACC
:1026900017F018FD384605B0BDE8F08F4F462B46C1
:1026A00008E0B2F5807F05D0039964184AF1000A6A
:1026B0000028D5D101983946029A039317F002FDFC
:1026C000039B1846E7E700BF009435770000000041
:1026D00000CA64D63B00000000CA9A3B000000001C
:1026E000A973026000CA9A3B0000CA9A08B5064A5C
:1026F0000321064816F033FB00F094F8002142F263
:10270000107014F06FFEF9E7565F0260283D02601A
:102710000149024820F08FBC80822820008D2820AB
:1027200000487047008D282007B5074883685B681C
:1027300003B19847642200230448CDE9002315F033
:10274000EFF803B05DF804FB90370260E8842820BE
:1027500030B500208BB009F061F804461048694696
:1027600083685B689847054668B10E4A03210E48A6
:1027700016F0F5FA20460AF0CFFC00F0BBFA04464A
:1027800020460BB030BD2146084800F06FFB0748DB
:1027900015F083FC2B462A46012119F0D9FCEFE7FE
:1027A000543702606B5F0260283D026060B82820E9
:1027B00010B50446FFF7CCFF30B9084A012108489C
:1027C000BDE8104016F0CBBA18F04CFA11F0D4FE68
:1027D0002046BDE81040FFF7A7BF00BF9E5F026024
:1027E000283D026010B504460A4A03210A4816F043
:1027F000B6FA0A4820F006FB30B9094A012106481A
:10280000BDE8104016F0ABBA2046BDE81040FFF717
:10281000CFBF00BFB85F0260283D02609037026002
:10282000CB5F026037B50B4D002405234FF4804287
:1028300028460949009414F035FA0849284620F042
:10284000FAFB074A0321074816F089FA204603B02D
:1028500030BD00BF008D282040C528207082282070
:10286000E95F0260283D0260134B00B51B688BB026
:10287000A3F26C730593114B1B68013B0493104B3F
:102880001B6803930F4B1B6802930F4B1B6801934C
:10289000002300930D48694683681B6898470346E8
:1028A00020B10B4A01210B4816F062FA15F0EEFB3D
:1028B0000BB05DF804FB00BF78B8282074B828205E
:1028C00070B828206CB8282068B8282054370260D7
:1028D000F25F0260283D0260F8B51A4D00AF18F0B3
:1028E000EEF920F0BCF803462860174C0321174A84
:1028F000204616F03DFA164BD3F800C0154B1E6863
:10290000154B1868154B19682B686D468CB06A46D4
:10291000DFF84CE0C2E909130723C2E905ECC2E97C
:10292000076042F8103F00234FF46351204601F046
:10293000B9F9AD46FFF7F4FE0A4920F07CFBBD462D
:10294000F8BD00BF68B82820283D02600C60026016
:1029500070B8282074B8282078B828206CB82820AF
:102960001F6002609082282070B5002008F056FF9A
:10297000054612F013F91D49044612F097FC002396
:10298000022120461A4619F0E3FB284613F024F8EA
:1029900001221749044613F02BF810F05FFD10F0E8
:1029A00073FDA0F110021421204612B219F0ADFB04
:1029B0000023204605211A4619F0CAFB20460321B0
:1029C00020F030F8002301220A49204606F030FFAB
:1029D00006F0E6FF2146064607F040F8064820F0DC
:1029E000EBF9314618F0F3FA284670BD41600260F9
:1029F00048600260D9280060E037026008B518F02E
:102A00005EF920F02CF8074A03461060064A0321BD
:102A1000064816F0ADF9FFF7A7FFBDE8084015F02E
:102A20002ABB00BF6CB82820F2600260283D02601B
:102A300070B5002008F0F2FE054612F0AFF81D490F
:102A4000044612F033FC0023022120461A4619F0F6
:102A50007FFB284612F0C0FF01221749044612F0FE
:102A6000C7FF10F0FBFC10F00FFDA0F110021421C5
:102A7000204612B219F049FB0023204605211A46D0
:102A800019F066FB204603211FF0CCFF0023012232
:102A90000A49204606F0CCFE06F082FF2146064693
:102AA00006F0DCFF064820F087F9314618F08FFA6F
:102AB000284670BD066102600B610260FD2900605E
:102AC000E037026008B518F0FAF81FF0C8FF084BAD
:102AD00001301860074B1B68074A0321074816F0AE
:102AE00047F9FFF7A5FFBDE8084015F0C4BA00BFDD
:102AF00070B8282074B828204C610260283D02601C
:102B000070B5002008F08AFE054612F047F81D490E
:102B1000044612F0CBFB0023022120461A4619F08E
:102B200017FB284612F058FF01221749044612F0FD
:102B30005FFF10F093FC10F0A7FCA0F11402142129
:102B4000204612B219F0E1FA0023204605211A4668
:102B500019F0FEFA204603211FF064FF0023012232
:102B60000A49204606F064FE06F01AFF2146064692
:102B700006F074FF064820F01FF9314618F027FAD6
:102B8000284670BD5F61026063610260C52A006013
:102B9000E037026090B589B000AF18F090F80446B5
:102BA0002022394613F00CFA20461FF058FF6C46DD
:102BB00001300E4B8AB018606A460D4BD061C2E9F5
:102BC00005374FF4007313840A4B42F8103F00237B
:102BD0004FF41351084801F065F8A546FFF790FF40
:102BE00015F049FA2437BD4690BD00BF74B82820BF
:102BF000B761026004000001283D026070B500204A
:102C000008F00CFE054611F0C9FF1D49044612F0FC
:102C10004DFB0023022120461A4619F099FA284656
:102C200012F0DAFE01221749044612F0E1FE10F01C
:102C300015FC10F029FCA0F114025421204612B218
:102C400019F063FA0023204605211A4619F080FA8C
:102C5000204603211FF0E6FE002301220A492046F8
:102C600006F0E6FD06F09CFE2146064606F0F6FE5E
:102C7000064820F0A1F8314618F0A9F9284670BDA1
:102C8000D0610260D6610260952B0060E03702607F
:102C900090B583B000AF18F012F8052239466C46A3
:102CA00013F08EF9384620F0AFFB0E4B8AB0186057
:102CB0006A460D4BD061C2E905374FF400731384A7
:102CC0000A4B42F8103F00234FF41351084800F01C
:102CD000E9FFA546FFF792FF15F0CDF90C37BD4689
:102CE00090BD00BF78B828202C620260040000016B
:102CF000283D026070B5002008F090FD054611F0F7
:102D00004DFF1F49044612F0D1FA0023022120464C
:102D10001A4619F01DFA284612F05EFE01221949E2
:102D2000044612F065FE10F099FB10F0ADFBA0F127
:102D300014022421204612B219F0E7F9002320469C
:102D400005211A4619F004FA204603211FF06AFEF5
:102D5000002301220C49204606F06AFD06F020FE01
:102D60002146064606F07AFE084820F025F831464E
:102D700018F02DF93046012118F0B8F8284670BD3A
:102D80004362026048620260912C0060E03702609A
:102D900008B5FFF7C5FC0249BDE8084020F04BB973
:102DA000A082282084B037B5044607A8002580E813
:102DB0000E0013460B49099A684600958DF8045099
:102DC00014F034FE6946204612F070FA2B462A466B
:102DD0000121204619F0BCF903B0BDE8304004B031
:102DE000704700BF6162026084B070B588B00CACFF
:102DF00084E80F000B4B1E6826B908B0BDE8704090
:102E000004B070470FAD6C460FCD0FC40CAB95E806
:102E1000070084E8070070680ECBFFF7C3FF366831
:102E2000EAE700BF7CB8282070B590B00C4806AE29
:102E3000836831465B68984720B10A4A01210A48F5
:102E400015F08DFF0AAD6C460FCD0FC495E8030059
:102E500084E8030096E80F00FFF7C6FF10B070BDCE
:102E6000543702606B620260283D026013B504466D
:102E7000084611F093FE0023082160601A4619F0FD
:102E800067F9002323600A4B5A686AB9C3E9004412
:102E9000084A00230848CDE900230022002314F04B
:102EA0003FFD002002B010BD14605C60F0E700BF81
:102EB0007CB82820F0490200208528202DE9F04F19
:102EC00091B0840705460E46009302F00403DDF836
:102ED00068900293C2F3C203039203F101030593C6
:102EE00040F0BA81041D30B1072909D86FF01B00EA
:102EF00011B0BDE8F08F01F00706341DC6F10806D9
:102F0000009B4FF000084FF0040A591E4FF0FF33AA
:102F10004746C34601935346CDF810800DB1009A41
:102F200022600598002800F3E8809848009A8242C1
:102F300003D397488242C0F0E080039AA4EB050EC9
:102F400092074FEA9E0000F103810F2F00F2B1803B
:102F5000002D00F0058107F140020DEB020C019AF3
:102F60000CF8200C0CF8102C049801300490E7E0C9
:102F70007A285DD84B280ED8472859D829282DD82B
:102F8000252852D054D820287AD02338D0F1000BED
:102F90004BEB000B74E04C382E2849D8DFE800F0EA
:102FA0007048484848484848484848484B48484876
:102FB000484848484859484B4B595959704B6D48F7
:102FC0007048184B184848827F4B48484B487F0050
:102FD00000204FF0000B4FF0040A38E02A3801229D
:102FE000C0B202FA00F010EA0E0F49D110F0625C94
:102FF0002FD110EA020B43D06046013C5444B4FB8D
:10300000FAF40AFB04F4002D61D0A3EB050CA444F0
:10301000B4453FF66BAF002868D1042B47D159F86F
:10302000043B2360043404232AE0019A013A01920C
:103030004FF0000B24E011F8010C6C2834D111F88A
:10304000023C00206C2B8346C5D14FF0080A534642
:10305000D3E709F10709073429F0070924F0070429
:10306000F9E802AB35B106982044B0423FF63EAFD6
:10307000C4E900AB08344FF0000B4FF0080A534688
:1030800011F8010F002878D0BBF1000F7FF470AF6A
:103090002528F5D1019B4FF0010B013301934FF02F
:1030A000040AECE7584694E700208346A5E7082B7E
:1030B00002D06FF015001BE709F1070929F0070995
:1030C000F9E80223C4E9002308340823D8E768B9E3
:1030D000042B02D109F10409A4E7082BE9D109F175
:1030E000070929F0070909F10809EDE7059A013AEE
:1030F000059259F8042B009210E7039A900720D507
:10310000A4EB050E4FF0010C4FEA9E00BEF5007FC8
:10311000CFD20F2FCDD8F5B107F14002C0B20DEBE1
:10312000020E019A0EF8200C0EF8102CBCF1000FC4
:103130003FF41AAF60F07F0008F101080EF8200C90
:103140000137C5F1080204344FF6DA7E069297E79C
:103150004FF0000CDAE7BCF1000F01D00136EFE7C9
:10316000029802360028EBD10098CDE90631FFF72E
:1031700023FA0644DDE90631E2E7631BB3F5806F0D
:1031800097D23DB9A6F10804E018B1E65C350260BB
:10319000A0C402609B08029A28602B709DF8103032
:1031A000C2B1EB7085F80280B8F1000F05D008A815
:1031B0000022C5F1010C97420ED1C5F101030DF1BA
:1031C00020094FF0000A0DF1300B0193574512D141
:1031D000601B8DE66B70E5E710F8013B190608D51A
:1031E00004EB0C0E03F07F03B6453FF67FAE04F808
:1031F000013B0132DFE7B8F1000F03D099F900205D
:10320000002A17DB029BD3B11AF80B2004F8012B1C
:103210000022019B98182044B0423FF667AE99F80F
:103220000000009904F8010B2046039220F053F9A6
:10323000039A14440AF1010A09F10109C6E799F851
:10324000002055F822300093029B009845F8223068
:10325000FFF7B2F9421CDCE76FF00D0048E600BF53
:103260002DE9F04F97B00446894600AF90F802A0D0
:10327000D7F880B03B62CBF3C003FA62BB6141B9BF
:10328000457800780AEB800020444D4517D8A0EB24
:103290000409E378FB61BAF1000F02D01BF0010FC3
:1032A00016D1FB6953BBFB6A1BB13A6A49462046FB
:1032B00098474D4628465C37BD46BDE8F08F461C12
:1032C00009F101093046FFF777F901303044DCE7B6
:1032D0002378626899007A62FA6A796104EB830163
:1032E000002A40F000814D460E4601EB0A094FF0DE
:1032F00000084E454CD101EB0A0610E01BF0020F0E
:10330000D1D023789A0004EB83017A6162687A62F3
:10331000FA6A002A77D14D4601EB0A0690461BF067
:10332000050F0CBF02230123FB62FB6906EB430A76
:103330000BF00203BB625645BCD016F8021B16F810
:10334000013C54F82390AF4B994502D3AE4B9945BD
:1033500036D3BB69002B40D0786A15F031F90028CC
:103360003BD0E9468AB06A46A84B53617B6AC2E902
:1033700006314FF400731384A54B42F8103F00232D
:103380004FF41251A348023D00F08CFCCD46D2E729
:1033900016F8013BF96254F82300FFF70DF9D7F84E
:1033A00084300130F96A4BB1D7F8883098453EBF78
:1033B000D7F8843023F8180008F10108054498E78D
:1033C000BB6923B1786A15F0FBF80028C9D11BF05E
:1033D000010F05D1FB6AED1AADE7BB6A002BAAD03D
:1033E0004846FFF7E9F8D7F8843053B1D7F888306A
:1033F00098453FBF431CD7F8842022F8183008F1C5
:103400000108054497E7BAF1000F72D01BF00406DB
:1034100072D0D046002607F1480052463B61B9629F
:1034200020F059F8B96A3B6901EB0A02F969BA62FE
:10343000FA695200FA60BA6A02EB41023A610BF093
:103440000202BA603A69B96A8A4257D11BF0020F88
:1034500062780CBF4FEA580100217A621BF0010F1D
:103460003244D2B240F09F801BF0040F14BF40469C
:103470000020BB616270A0702046E1703A6A7969F1
:10348000FB6A9847051EFFF615AFBB6941463A6ACD
:1034900007F1480023707B6A84F802A06370FB691F
:1034A000E370FB6A9847B0F10008C0F2B5807B6911
:1034B000A9EB0A013A6AC91AFB68C91AD7E90A03D3
:1034C00098470028C0F2AA80A8444FF0000B07F1EB
:1034D000380A08EB0005B34567D300213A6AFB6A56
:1034E00008469847E6E656464FF0000807F13800D0
:1034F00093E75646D04697E7B04695E7BA6A12F882
:10350000021B12F8015CBA6254F825003D4A904251
:1035100002D33D4A90421ED3BA6932B1786A7B60C9
:1035200015F04EF87B6800288CD1BA6802BB08F110
:10353000280207F1300C08F1010008F10208944458
:1035400007F158025FFA88F852FA80F00CF8101C64
:1035500000F8105C76E7BA693AB1786A7B6015F0DA
:103560002FF87B6800287FF46DAF1BF0010F09D0A6
:1035700006F1280207F13000711C161806F8205CCD
:10358000CEB25FE71BF0040F3FF45CAF08F12802F6
:1035900007F1300008F1010102EB000808F8105CA7
:1035A0005FFA81F84EE7002063E71BF80A3054F811
:1035B000239087F83730D7F88430FBB133F81B807D
:1035C0003A6A012107F13700FB6A9847002825DB9A
:1035D0000544B8F1000F06D14846FEF7EDFF00F1B3
:1035E00001081FFA88F83A6A41464846FB6A98473C
:1035F000002813DB05440BF1010B6CE7D7F884803E
:10360000DEE700BF5C350260A0C402608362026036
:1036100004000001303D026045464BE6054649E6A0
:10362000014B1860704700BFB082282080B5054666
:103630000E461746984613F0F1FEDFF82090034639
:103640001FF082FF0446424649F8003039463046B2
:10365000A84754F8090002F0D3FA00BF08000000A0
:1036600038B502F031FC02F001FC354B354A1A60E6
:103670004FF40042344B1A60344B9A6922F44052A2
:1036800042F480529A615A6942F000725A619A6C0F
:103690009006FCD42E4AD36823F01F0343F0130393
:1036A000D3601368002BFCDA2A4804F065FC274B32
:1036B0001A6922F0070242F001021A619A6CD103E2
:1036C000FCD45A6922F4E0525A61204B9A6C92075A
:1036D000FCD45A691D4C42F440725A619A6942F412
:1036E00040229A615A6922F000725A61A56C15F065
:1036F0002005FBD1636A2846174923F04003636223
:10370000636A23F03F036362A36923F0300343F04D
:103710001003A361A36943F0E053A36104F070FCBC
:103720000D49284604F000FC0C4A0649022016F018
:1037300034FE636D284623F00303636538BD00BF84
:10374000C0BC282000366E01BCBC282000C00F4041
:1037500000000840083E026000389C1C7A84282043
:1037600008B504F005FF044B044A5A641A6C42F091
:1037700004021A6408BD00BF00C00A4055FAAF55E4
:103780002DE9F047044607464FF00109DFF8508065
:1037900014B93846BDE8F08794FAA4F5B5FA85F572
:1037A00009FA05F32E0108EB05156FEA030A24EA6E
:1037B00003042B7B002BEBD058F806301B694BB968
:1037C00046440422284607EA0A077368196800F08D
:1037D00055FADDE7284698470028D9D1F0E700BF21
:1037E000C03D026030B5002289B00F490F481FF07C
:1037F000E3FD0022002300240D4D0E4928460094CD
:10380000CDE906230E234FF44072CDE90334CDE910
:103810000144094B13F036FB084928461FF02DFCE4
:10382000204609B030BD00BF4138006028922820F2
:10383000A08D282080052920213B00604D63026077
:10384000014813F0E5B800BF208628202DE9F04795
:1038500080461E480F4615F0F4F9064678B3002559
:103860002846BDE8F087237B6BB12368DB680BB18A
:103870002046984723681B69CBB963680422204619
:10388000196800F0FBF9013610344C45EBD3B8F160
:10389000000FE5D0002DE2D02846FFF771FF054666
:1038A000002FF7D00021642013F09CFDF2E72046A2
:1038B00098470028E1D00AFA06F31D43E3E7044CD9
:1038C0000546DFF810904FF0010ADEE794B8282093
:1038D000C03D0260D03D0260014B53F820007047AC
:1038E000503E026008B5034608462BB1044A1360F7
:1038F00000F06EFC002008BD6FF01500FBE700BF74
:10390000B482282010B5044C237813B9034813F06F
:103910007FF80123237010BDE6C3282020862820CD
:1039200010B50446084815F08CF95CB1074BBFF39D
:103930005B8F53E8001F013943E80012002AF8D1D9
:10394000BFF35B8F10BD00BF8CB8282090B8282033
:103950000020064BBFF35B8F014653E8000F43E89E
:103960000012002AF9D1BFF35B8F70478CB8282072
:1039700070B5FFF7EDFF084C0546084EB44200D382
:1039800070BD63685B792BB123685B6813B129460E
:10399000204698471034F1E7C03D0260D03D0260F8
:1039A00010B5044C0449204614F038FF034B1C604A
:1039B00010BD00BFA88428203C3E026084B82820A7
:1039C00008B5084A00234FF47A7107481370074A74
:1039D0001360074A1360FFF785FFBDE80840FFF753
:1039E000DFBF00BFE7C328205D8C01608CB82820B2
:1039F00090B82820014600220023014814F02FBF70
:103A0000A8842820014814F0C5BF00BFA88428203E
:103A1000024B0146186815F011B800BF84B8282081
:103A2000014815F046B800BFA8842820254B70B582
:103A30001878002844D0FFF7E5FF054690B1224BE7
:103A4000BFF35B8F53E8001F013943E80012002ADF
:103A5000F8D11E4CBFF35B8F1D4EB44226D32846CF
:103A6000FFF7D6FF1B4B1C4C1B68002B12DD1FF011
:103A70005CFC0A220023FEF723FCD4E90032C01AC2
:103A800040F2E93361EB0201984271F1000101D388
:103A9000FFF76EFFD4E9003213F57A7342F10002AA
:103AA000C4E90032BDE87040FFF7BABF63685B79D4
:103AB00023B12368294620461B6898471034CCE779
:103AC00070BD00BFE6C3282090B82820C03D02602A
:103AD000D03D02608CB828202092282070B50D4D72
:103AE000297861B90C4C01200C4EFFF7AFFEB442AF
:103AF00006D3FFF79BFF0028FBD101232B7070BD7D
:103B000063685B791BB1236820469B689847103433
:103B1000EDE700BFE7C32820C03D0260D03D026052
:103B200000212DE9F0470846FFF790FE044658B300
:103B30004FF4FA784FF000091C4B1FF005FD1C4AAA
:103B40001B58136033B11B4B1B68092B02DD1A484D
:103B500012F05EFF0025194FDFF85CA044B120464B
:103B6000FFF70EFE044618B94FF0FF384FF0FF394B
:103B7000FFF75CFF064628B9B5B942464B465046AA
:103B800012F06AFF3546E9E74FF0FF384FF0FF3992
:103B9000D2E72B689B691BB1002228461146984743
:103BA0001035BD42F5D3E8E7054DFAE708000000FF
:103BB00088B8282090B8282020862820D03D026090
:103BC000C03D026013B5184815F03BF8174B1B7841
:103BD00073B1EFF31184102383F31288BFF36F8F57
:103BE000FFF724FF84F31188BFF36F8F02B010BD7D
:103BF0000F4B1B68002BF9D050B9002200230D4851
:103C0000CDE9002342F21072002313F089FEEDE7A4
:103C10000928EBD107481FF0DBFB074802B0BDE8DD
:103C2000104012F0F5BE00BF90B82820E7C328204E
:103C300088B828202892282020862820064B10B5F6
:103C400004461B6898472146A060044814F083FE90
:103C5000BDE81040FFF7B6BFB4822820A884282012
:103C6000044A054B9B1AB1EBD30F34BF52F8310015
:103C700000207047283D0260C03D0260084BC31A17
:103C80001B1110B401334468237143689A710122F7
:103C90004368196043685A7110BCFFF733BE00BF18
:103CA000C03D02602DE9F04F8FB0C1F34A280D46A8
:103CB000914604AF0C0DB8607B60B8F1000F63D083
:103CC000002607F114034FF0040B4FF00A0AC7F85F
:103CD0000C8032467E624846C7E90766019307F1C9
:103CE0001C03CDF808B0CDF800A0F968FFF7B8FACA
:103CF000B0F5006F03461CD36C468AB0D9F80410A7
:103D000004AB26481A46C3E9050140F2FF71D961A8
:103D10004FF400711984224B42F8103F4FF41251B6
:103D200033462048FFF7BEFFA5462C37BD46BDE809
:103D3000F08FC0F30A0804F117003B60184468F3E1
:103D4000532520F007008008FFF754FE044690B189
:103D50003B6800F11001144A4846F961C7E908368A
:103D600007F11403CDF808B0CDE900A307F11C0357
:103D7000F968FFF775FA68F353257B68B968204640
:103D80002A4614F09CFFD0E704F1170020F007004A
:103D90008008FFF72FFE0446EDE700BF6263026074
:103DA00004000001583D0260938C01602DE9F04F42
:103DB00087B00446934698460391DDE91279DDE920
:103DC000105ABFB13B46524610210020CDF800905A
:103DD000CDF81490FFF772F8B0F5006F06460AD3DD
:103DE00040F2FF73174A0221174807B0BDE8F04FB1
:103DF00014F0BEBF3E4604F0070405F117000BF0B7
:103E0000070BE400304444EA8B1420F0070044EA36
:103E10004624800844EA0554FFF7ECFD054640B10E
:103E20003FB13B46524631461030CDF80090FFF787
:103E300045F8434622460399284607B0BDE8F04FAF
:103E400014F03DBFA1630260583D0260406820B19C
:103E5000034BC01A40F3CF0070474FF0FF3070475C
:103E6000283D02600EB403B503AB0146054853F884
:103E7000042B019302F0EEF902B05DF804EB03B0FD
:103E8000704700BFD38D0160CA0605D48B064CBFB6
:103E900002490349FFF7E6BF704700BFDA630260DB
:103EA000D96302602DE9F04F89B09B4604460D4668
:103EB000149B90469DF84CA00693159B179E059366
:103EC000169B0493BAF1000F00F09D8006F48073F6
:103ED00006F00209079314F0DAFE024600283ED0ED
:103EE00091492046FFF7BEFF0746B9F1000F08D001
:103EF00016F0440F35D12A468C492046FFF7B2FF11
:103F0000074406F0010353B1894B2046894953F811
:103F10002A20894B002A08BF1A46FFF7A3FF06F4A0
:103F20008073002B49D006F00803002B63D1B8F151
:103F3000000F66D0424681492046FFF793FF0546B1
:103F4000069B3D44002B6DD1049B002B73D1F307DE
:103F500000F1E48031462046FFF796FFD8E007469F
:103F6000C3E7774B18680028CAD0764B4FF47A79AC
:103F70004FF461614FF03C0C1B68B5FBF3F5B5FBEA
:103F8000F0F300FB135509FB05F5B3FBF1F2B5FBAC
:103F9000F0FE01FB123100FB1E55B1FBFCF309FBE7
:103FA00005F50CFB1311B5FBF0F5009120466649B1
:103FB000CDE901E5FFF756FFA2E706F00803EBB1F4
:103FC000624B2046624953F82A20FFF74BFF054613
:103FD000B8F1000F05D0424658492046FFF742FF8E
:103FE0000544BBF1000FABD05A465A492046FFF7B3
:103FF00039FF0544A4E74FF0000BE1E706F00805A0
:10400000E6E745469CE7BBF1010F069B06D1002B76
:1040100064D1049B002B7BD000250CE0002BF8D052
:104020004D485CE04D48069B22464D4914F097FAF6
:10403000049B002B68D0DFF82C81DFF82C91049FC3
:104040004FF0000B31462046102F28BF1027FFF7F6
:104050001BFF5D4545DC059B4FF0010B49462046A3
:104060001A78FFF7FFFE1BF0070F03D141462046E9
:10407000FFF7F8FE5F453BD9059B4946204613F8FC
:104080000B20FFF7EFFE0BF1010BBBF1100FEAD194
:104090004FF0000B35492046FFF7E4FE5A46059BDA
:1040A00020469A5CA2F120015F29314928BF2E22C7
:1040B000FFF7D8FE0BF1010BBBF1100F1DD01BF069
:1040C000070F03D141462046FFF7CCFE5F455A4615
:1040D000E5D841462046FFF7C5FEEBE71F485546A9
:1040E000A1E7414620460BF1010BFFF7BBFEB0E70D
:1040F00020492046FFF7B6FEC5E7059B3B440593E4
:10410000049BDB1B04939AD1BAF1000F7FF41FAF1D
:10411000204609B0BDE8F04F14F04EBE064A2046D6
:104120000449FFF79FFE15E7E1630260E563026063
:10413000603E026023830260DC6302600A64026006
:104140009CB8282098B82820EE630260743E026074
:104150000E64026014640260098E0160D38D0160F8
:104160005562006021640260196402602364026089
:10417000256402601F64026042F20F73114A8B4291
:1041800073B5044628BF0B4605680521684613F041
:1041900021FC636806460B2228465B680A4914F036
:1041A000FDFD63683246694628465B6814F0F6FDFB
:1041B00063681B2205495B68284614F0EFFD02B0D6
:1041C00070BD00BF8B7102604464026028640260AD
:1041D00000210123064A904206D8064A01B901236C
:1041E0001360054B18607047400801215B00F2E73F
:1041F00040420F0098B828209CB82820F8B50D46FA
:1042000004464618054FB44201D12846F8BD14F8BB
:10421000011BBB6801485B689847F4E77836026089
:10422000014B036000207047BC3E02600C4BF0B4B1
:104230000C4E5F6A0C4BB34203D36FF08500F0BCA9
:1042400070475D68BD4209D31C693CB195F802C056
:104250000579AC4502D12346F0BC18472433EAE780
:10426000C4B828201C872820F88628202DE9F0478C
:1042700005460E461746124CDFF84880DFF8489096
:10428000444503D36FF08500BDE8F0876268D9F834
:1042900024309A4212D3A36983B190782979884255
:1042A00005D13A4631462846BDE8F04718475279CD
:1042B000012A03D13A463146284698472434DFE79D
:1042C000F88628201C872820C4B828202DE9F04132
:1042D00005460E4617460A4CDFF82880444502D3AF
:1042E0006FF0850009E063690BB92434F6E73A46BC
:1042F0003146284698470028F7D1BDE8F08100BF35
:10430000F88628201C872820024B00221A605A6059
:10431000704700BF7FB9282070B50B4B0B4CA342F0
:1043200001D3002070BD196A00221E7F0439D5B266
:10433000AE4201D82433F2E7013211F832508542FF
:10434000F5D10120EEE700BFF88628201C87282041
:1043500008B5044A03460121034814F0C1FD0020BA
:1043600008BD00BF8A640260B03D026038B50546F2
:1043700002F038FB10F1780F044611D12B460D4A9C
:1043800002210D4814F0ACFD2846002414F0AAFDCB
:104390000A4AD2F8C43023EA0003C2F8C43007E066
:1043A0000028F1D02B46064A0121034814F098FD5D
:1043B000204638BDA5640260B03D0260C4B8282024
:1043C000C6640260094808B50378C3F341130A3391
:1043D00050F823303BB100F1080200F1100198477A
:1043E000C043C00F08BD1846FCE700BFC4B8282072
:1043F00004282DE9F74F04460F46DFF8989015D0B2
:1044000001282FD1DFF8908098F8B93053B3234DAD
:1044100000F0C0FE4D4522D22A6A4FF0000A2B7FE1
:104420005FFA8AF6B34204D82435F3E7FFF76CFF4E
:10443000E8E702EBC60601920AF1010A307902F0C0
:10444000D1FA8346307914F04DFDD8F8C430BBF171
:10445000000F019A23EA0003C8F8C430DFDA002312
:1044600088F8B9300D4D4D4508D30B4B1B6A6BB125
:104470003946204603B0BDE8F04F1847EB681BB142
:104480003A462146284698472435ECE703B0BDE874
:10449000F08F00BF1C872820C4B82820F886282069
:1044A00073B5C4B20D4663068DF8074007D02046A9
:1044B000FFF732FFB0B1144B93F8BA0090B1124E2F
:1044C00023468DB1114A0321114814F009FD9DF8CE
:1044D000070002F07BF9F3691BB10DF10701082019
:1044E0009847012002B070BD0A4A0321084814F021
:1044F000F7FC9DF8070002F097F9F369002BF0D064
:104500000DF107010920EBE7C4B82820E864026038
:10451000B03D0260FB64026073B5044680782B4DA9
:104520008DF800002379627943EA0223ADF8023066
:10453000E37803F003038DF8043014F0D3FCD5F8CE
:10454000C430064618420CD0A478204600F004FE81
:104550002046FFF70BFF1EF08AFD10B996201EF0D3
:1045600077FE684602F09AF810F1780F9DF8003057
:104570001BD1174A0221174814F0B2FC9DF8000025
:1045800002F0DCF910F1780F19D19DF8003002210A
:10459000114A104814F0A4FCD5F8C430012033436C
:1045A00085F8B900C5F8C43007E00028E6D00B4A0A
:1045B0000848012114F094FC002002B070BD0028CE
:1045C000EAD09DF80030064AF2E700BFC4B82820C0
:1045D00010650260B03D026057650260336502609D
:1045E000776502602DE9F047924D04460E46174666
:1045F000AB69C3B9207800F01F00012876D00228EB
:1046000000F0DC8000BB94F900103A680029637860
:104610002EDA062B0CD0082B25D0ABB95370012312
:104620001370022303E198470028E3D100200DE036
:104630006388190A0A1F8C46012A05D9072903D85D
:10464000DAB26B6A1C781CB96FF01500BDE8F08710
:104650005D78654503D1824200F0E4800130234457
:10466000F0E71B78E3E095F8BA3013700123DEE041
:10467000052B11D0092BE7D163886E6A002B32D14C
:10468000FFF742FE638885F8BA30EB69002BCDD086
:10469000694903209847C9E7A07801F0C5FF0028C1
:1046A000C4D0D1E77378042B10D0052B11D0022B86
:1046B00004D177796388BB4208BF012033781E4458
:1046C0003378002BEED10028BED0D9E796F80380CE
:1046D000F4E76388BB42F1D1B8F1000FEED1304668
:1046E000FFF71AFFEAE7FF27B846E9E795F8BA307F
:1046F000D7F800C0002BA7D06F6AA28894F804E016
:104700003B46187800289FD05978022904D193F8A5
:104710000480F04500F292800344F2E78CF8003008
:104720008CF80130316081E71F4493E00B2B8BD173
:1047300000264FF0FF08B246C14606E07B78042B06
:104740000FD0052B21D03B781F443B78002BF5D1AF
:10475000EB6913B1514607209847002E7FF466AFEE
:1047600072E797F80280A38897F803909845EAD1FA
:1047700063889945E7D1B8F1070F1CD805EB08030A
:10478000BA46012683F8BB90DDE7A3884345DAD11A
:10479000A3784B450AD0BE78304600F0DDFC3046A9
:1047A000FFF7E4FDB0FA80F67609CCE73846FFF76C
:1047B000B3FE0646C7E7BA460026C4E794F90020D0
:1047C0006378002A18DA002B7FF43EAF24793F6823
:1047D00063060AD02046FFF79FFD00283FF434AF60
:1047E00095F8BA30002B3FF42FAF3946204602F03F
:1047F0006FF800237B7014E7012B08D0032B7FF4A4
:1048000023AF6388002B7FF41FAF012103E0618891
:1048100000297FF419AFA088FFF742FE00287FF43B
:1048200005AF11E702293B607FF41BAF5B88336063
:10483000FCE600BFC4B828207EB9282094F9000007
:1048400063780028BFF672AF002B3FF467AF0A2BE6
:104850007FF4FAAE3B78002B3FF4F6AE797804296A
:104860007FF462AFB9788A427FF45EAF072A96BFC1
:104870005219002392F8BB308CF80030F6E600BFE6
:104880002DE9F84F05460F46904699460426DFF875
:1048900034B0DFF834A04B4642463946284602F091
:1048A000DFF810F10B0F044609D12B465A460221BE
:1048B000504614F015FB12F013FD013EEBD12046DB
:1048C000BDE8F88F98650260B03D026013B5164CE4
:1048D000237DF3B9E26801ABA16880200192FFF764
:1048E000CFFF019AA3681344A360E3689B1AE360B7
:1048F0006BB962B12369E2889A4208DD94F8C82056
:1049000093FBF2F102FB11330BB90123237502B0C3
:1049100010BD002380201A461946237502B0BDE859
:10492000104002F09DB800BFC4B828207FB5002316
:104930000D4606460193002862D100293AD108228B
:104940000B460DEB020114F07BFC002804DA8020FA
:1049500001F03CFF04B070BD2E4C029ABDF80E3041
:104960002260039A2575626004F13802A2609DF905
:104970000820002AC4E903550FDB802B09D9264AF9
:104980000121264814F0EBF9802001F01FFF284692
:10499000DEE713B1C4E90333DCE7FFF713FD0028BA
:1049A000D5D0E28823699A42D4BFE260E360FFF782
:1049B0008DFFCFE7174C01ABD4E90212002A05DCCA
:1049C000024614F03DFC0028C4DAC0E714F038FCBD
:1049D000002804DA802001F0F9FE3046B8E7019A99
:1049E000A3681344A360E3689B1AE360002BB1D172
:1049F00004F13803A360FFF7E5FC0028D7D1A6E750
:104A00008028A7D1034BDA68002AD0D11B7D002B68
:104A1000CDD19FE7C4B82820BF650260B03D0260D9
:104A2000054B064A586200209A62054ADA62054A36
:104A30001A63054A9A617047C4B82820E5450060AA
:104A40002D420060CD4200606D4200602DE9F341CF
:104A500004464C4D4FF0FF334FF0FF324A4811F0FF
:104A600023FF95F8B8306BB16FF07704474A022105
:104A7000474814F074F9444811F08EFF204602B004
:104A8000BDE8F0816B6A6BB900F0D6F8FFF7C8FF9C
:104A90006B6A3BB93F4A01213D4814F060F94FF081
:104AA000FF34E8E73C482C62E8616E6A02F024F9C2
:104AB00001F082FD041EDEDB00F08EFB041EDADB5B
:104AC0007378012B01D1F3793BB9344A0121304885
:104AD0006FF0150414F043F9CDE70026684685F819
:104AE000C830ADF802308DF804608DF8006001F038
:104AF000D5FD041EBFDB802768468DF8007001F0ED
:104B0000CDFD041EB7DB2649304602F0D1F8041E65
:104B1000B1DB2349384602F0CBF8041EABDB214C55
:104B2000DFF8848044451AD3002001F007FF041EFB
:104B3000A1DBD5F8C430802043F00103C5F8C430B0
:104B400001F0FCFE041E96DBD5F8C430002443F4CB
:104B50008033C5F8C430012385F8B8308BE7276A65
:104B60000026227FF3B29A4201D82434DAE707EB19
:104B7000C30257F833100136107902F099F8002873
:104B8000EFD08CE7C4B828206C852820D865026057
:104B9000B03D0260FB650260F14300602066026088
:104BA0002D490060F88628201C87282030B5204B2E
:104BB0008BB003F1100505AA1868083353F8041CDC
:104BC0001446AB4203C42246F6D11B7810220021C2
:104BD00001A823701EF0A7FC1222002115481EF028
:104BE000A2FC102101A802F0BBFA00281DDD082854
:104BF00001AB1049B8BF082009381A18002012F874
:104C0000013F0AAC0130023104EB131403F00F032F
:104C1000082803F1280314F8144C6B4401F8024CE3
:104C200013F8143C01F8013CE9D102480BB030BD47
:104C30005A660260EAC328202DE9F04F894B87B0FD
:104C400093F800A000AFBAF1000F04D086481C37DB
:104C5000BD46BDE8F08F844C00264FF00119354663
:104C6000B046FE6023783BB90234804B9C42F3D1BE
:104C700001237C4A1370E9E76378052B1DD8DFE830
:104C800013F0AD000600EF00AD001F005000402300
:104C900007F1100087F810A07B8287F814A001F0BC
:104CA000DDFC40B1082307F110007B8201F0D6FC47
:104CB00008B1A7F812A07B8AE37123781C44D1E7DE
:104CC000E378002BF9D1A37813B3FB680133DBB28F
:104CD000FB60F2E76B689C421CD02435644B9D421C
:104CE000F8D36D4688B06A46624BC2E905340323A7
:104CF00042F8103F00234FF4C2515F48FEF7D2FF45
:104D0000AD465D4801215D4A14F029F800209EE778
:104D10005B4DE3E7AB68002BD7D0F9682046984796
:104D2000D3E7002D58D1574A0121534814F017F802
:104D3000E7E72B6AA07803EBC2010B79984245D1D3
:104D40004FF0010BE0785FFA8BF300F00300387549
:104D5000207994F805C040EA0C20788294F902008A
:104D6000002826DA0BF110004FF0010C0CFA00F0CD
:104D700010EA090F25D143F08000387407F11000C4
:104D8000BA60C7E9003101F069FC3B68D7E901125C
:104D9000B8B93A7C12F0800FA2700A714FF001028C
:104DA00017BF103302FA0BF2DBB29A4049EA02094C
:104DB00083E7012000FA0BF010EA090F01D1184631
:104DC000DBE70BF1010BBBF1100FBBD101322B7FE5
:104DD0009A42AED32C4AA7E70022F8E7032E25D14A
:104DE000FFF7E4FE8346A8B1FDF7E6FB034688B172
:104DF000102806D0B860254A02211F4813F0AFFFE3
:104E0000BB68102B594604F10200A8BF10231A46B4
:104E10001EF061FB23786FF00201E218091B04EB1E
:104E20005303D14209D50136F6B246E7002EF1D13F
:104E3000B8F1000F08D1164A76E702F801AC13F872
:104E4000010902F8020DECE7A4EB080388F8023030
:104E5000C3F3072388F80330FB6888F80430E2E7DF
:104E6000A0462AE7E9C3282030862820F786282094
:104E70001C8728206B660260A83D026051670260B3
:104E8000F88628208B660260CC660260E9660260C4
:104E900034670260084B00211A4610B51C78844222
:104EA00004D15C6814B102EB811010BD01314033B4
:104EB0000429F3D10020F8E790B928202DE9FF411B
:104EC00050F8283C044610F82C6C10330AD10369C2
:104ED00050F8202C98073DD5D2B9590715D5002395
:104EE00044F8283C54F8283C10330BD054F8148C68
:104EF00054E907751EF0BBF8002857D02146324808
:104F00001EF099F804B0BDE8F08143F0040323617A
:104F100003AB54F8241C3046FFF7B2FC034640B103
:104F20002A4A01212A48009613F02CFF6FF015033E
:104F3000D6E7039A54F8243C134444F8243C54F82C
:104F4000203C9B1A44F8203C54F81C3C134444F881
:104F50001C3CC7E703AB54F8241C304601F0CCFDE1
:104F600003460028DCD1039D54F8243C2B4444F82C
:104F7000243C54F8203C5B1B44F8203C54F81C3C77
:104F80002B4444F81C3C002DA9D0304601F0BAFE59
:104F9000B5FBF0F303FB1055002DA0D154F8203CD5
:104FA000002B9CD0304601F02FFE9BE744F8180CF4
:104FB000A4F1100011F02CFD002DA3D0424639467B
:104FC0003046A8479EE700BF609228207F670260B6
:104FD000B83D02604B1E012B73B506460D4614D832
:104FE000FFF758FF044690B9012D0ED101AB012205
:104FF0000DF10301304601F07FFD019B002BF5D13F
:105000000C4A01210C4813F0AAFE02B070BD1EF03C
:105010002EF804F12C0108B1012D05D1084602B08B
:10502000BDE87040FFF74ABF044802B0BDE87040D9
:105030001EF001B89C670260B83D026060922820B3
:105040002DE9F74F054616469846019113F08AFF61
:10505000002871D1EFF311831022009382F312889C
:10506000BFF36F8FDFF8D8908346002200234846B5
:1050700011F0F2FCA0B9DFF8CCA04FEA8B170AEBD5
:105080008B1BDBF8044014F1100F20D12E4A2B4665
:1050900001212E4813F06CFE484611F0B9FC0DE0DA
:1050A0000BF1010B09F14009BBF1040FDDD16FF0E9
:1050B0000B04274A0121254813F051FE009B83F37E
:1050C0001188BFF36F8F204603B0BDE8F08F0C99B5
:1050D000019BCBF814100D99CBF810002846CBF8A3
:1050E00018106FF00F010AF80750CBF83C80CBF88E
:1050F0000410CBE9023601F005FE68B1284601F044
:1051000001FEB6FBF0F101FB10662EB1DBF83C109E
:1051100041F00401CBF83C1018F0020F07D007F162
:105120002C010C48002451441DF085FFC6E7284699
:1051300001F06AFD0446C1E76FF00F04C3E700BF4A
:10514000ACB9282090B92820D1670260B83D026030
:10515000B66702606092282010B5EFF31184102327
:1051600083F31288BFF36F8FFFF794FE50B143684B
:10517000103307D16FF08B0300F12C01436004481A
:105180001DF059FF84F31188BFF36F8F10BD00BF6E
:1051900060922820F8B50E4C04251027EFF31186F5
:1051A00087F31288BFF36F8F6368103307D16FF0F6
:1051B0008B0304F12C01074863601DF03CFF86F36C
:1051C0001188BFF36F8F013D04F14004E6D1F8BDB3
:1051D00090B928206092282070B5094C0025094E0E
:1051E000314620461DF00BFF01220135A4F11000CD
:1051F000403411461DF0B8FE042DF1D1002070BDE1
:10520000BCB92820BD4E006070B504460E46017939
:105210001546154813F083FE10B394F90020637807
:10522000002A16DB202B04D0222B0ED06FF0850035
:105230000AE02B681A6840F8102C9A8820F80C2C89
:105240009B7900F80A3C002070BD638800F8093C97
:10525000F9E7212BEAD11038072328603360F2E701
:105260006FF01200F0E700BF90BA28200146044812
:1052700008B513F061FE10B1012300F8073C08BD2A
:1052800090BA28200169012381F84B300B6833B1B3
:1052900091F849301BB1083101481DF0CCBE704770
:1052A000609228200169012381F84A300B6833B1EC
:1052B00091F848301BB1083101481DF0BCBE704761
:1052C00060922820012370B582F848300D4613689B
:1052D00014463BB192F84A3023B102F108010D485F
:1052E0001DF0A9FED4F850329A681B699A4205D184
:1052F0007DB904F118014FF47A7204E004F1180149
:10530000002DF8D0002200230248BDE8704011F0C3
:1053100007BD70BD6092282070B5056995F85E02E2
:10532000E0B195F85F32D3B985F84830EFF31186D4
:10533000102383F31288BFF36F8FD5F8500213F058
:10534000FAFB044686F31188BFF36F8F0022002317
:1053500005F11801034811F0E3FC204670BD002060
:10536000FCE700BF6092282000210D4A0346A0F808
:105370004810106883F85C12C3F854029088927940
:10538000A3F8580203F14C0083F85A224FF400723C
:1053900083F85B12A3F85E1283F860121EF0C3B8A4
:1053A000F03D0260F0B5D0F84C3285B004465B6841
:1053B0001B6A1F7D384613F0D5FD064608BB94F8DE
:1053C0004632F3B14FF4806203A9D4F8380213F0E7
:1053D000D1FB0546A8B1C0F3080384F8306003B9D7
:1053E000451EA4F1180303992A4638460193064B3B
:1053F00000930223FFF724FE2946D4F8380213F065
:10540000D8FB05B0F0BD00BFC552006010B5002349
:105410000469C4F8683204F51A720B4BC4F86402CC
:10542000596869B9C3E9002204F1080007491DF071
:10543000E6FD04F1180006491DF00DFE002010BD28
:105440000A605A60F0E700BF90BA28208F8F016091
:10545000A553006030B54FF40033426885B005694C
:1054600042F2A1000B4CADF80C1001A9CDE90103EB
:10547000002385F85D32106A0A220079FFF700FAEE
:1054800095F85D3223B901201DF0ACFC013CF7D149
:1054900005B030BDA186010073B500230469102555
:1054A0008DF8071084F84830EFF3118685F31288E1
:1054B000BFF36F8F01220DF10701D4F8500213F0F2
:1054C0003AFB86F31188BFF36F8F01280AD01DF0D5
:1054D000CEFD10B994F861326BB9094B1A780AB94C
:1054E00001221A700A22002304F11801054811F064
:1054F00017FC02B070BD00210A2011F073FFD3E742
:10550000FCC328206092282037B514460A1E0546A1
:1055100021DD04F14C01D4F84C0213F00CFB012303
:1055200084F8493023683BB194F84B3023B104F13F
:10553000080111481DF07FFDD4F84C124B684A69F0
:105540009A1ACB699B1AB3F5007F04D2012384F821
:10555000603203B030BD94F85E32002BF9D0074BB7
:105560004FF4007204F14C0128460093012301948A
:10557000FFF766FDEDE700BF609228200955006047
:1055800073B50D4601461C4813F0BEFC10B303680A
:10559000691EA0F519745E6805291BD8DFE801F0C3
:1055A0001C1A031C222694F85E1299B90123224684
:1055B00084F85E32336A187BFFF7A6FF94F8482020
:1055C00042B9336A1146187D0C4B019400930223B3
:1055D000FFF736FD02B070BD204602B0BDE8704056
:1055E000FFF7C2BE012384F85F32F3E794F85F321D
:1055F000002BEFD00023F6E790BA2820C5520060B8
:1056000037B5094D00244FF0FF334FF4806207494E
:105610002846009411F046FB054928461DF02DFD53
:10562000204603B030BD00BF60922820C00829206A
:10563000146802602DE9F047064600AF0C460029C9
:1056400036D0E9468AB0A3686D46D1E900122148F8
:105650004FF0050AA846C5E90501C5E9072348F842
:1056600010AF002342464FF421511B48FEF71AFBAE
:10567000CD466369AD46D4E903121848C5F810A0B9
:10568000C5E90501C5E90723002342464FF421512E
:105690001148FEF707FBCD46E369114A01210E4888
:1056A00013F066FBA3690F4A01210B4813F060FB5E
:1056B000012E07D1EFF305830B4A103B3146064814
:1056C00013F056FB2146304610F090FEBD46BDE873
:1056D000F08700BF1D680260803D02604C68026078
:1056E0007B6802608A680260B868026030BFFFF7BA
:1056F000FDBF00BF2DE9F0410B4E0546DFF82C80C1
:10570000324606EB0807CC1B094920461DF0E3FE94
:10571000A019083C424600211DF005FF07F10800D2
:105720002C67BDE8F08100BF000000000800000009
:10573000E03D0260074A936893F90E10002907DBE9
:105740005269934204D0044A536843F08053536033
:10575000704700BF8CC3282000ED00E070B5294CD5
:1057600006460D462848294913F031FDA36AD9049D
:105770003CD52548264913F02AFD1720A36A1A05AF
:1057800004D52148234913F022FD18201D4CA36A9B
:105790009B0512D51C48204913F019FDA36BA26A82
:1057A000100409D51D4A0121174813F0E1FA1EB172
:1057B000A36A23F40043A3621920124CA36A59057B
:1057C00004D51148164913F002FD1A20A36ADA0520
:1057D0000ED50D48134913F0FAFC1B20094A936AB1
:1057E00043F47F43936200232B7070BD1620C5E7FE
:1057F000A36A9B04F2D504480B4913F0E8FC1C2073
:10580000ECE700BF00ED00E0803D0260CB68026085
:10581000E1680260F2680260056902601E69026068
:10582000336902604E6902606669026010B5204CFF
:105830002049214813F0CBFCA36A990136D51E48B4
:105840001E4913F0C4FC1E20A36ADA0104D51A48CD
:105850001B4913F0BCFC1F20154CA36A1B0304D585
:105860001548184913F0B3FC2120A36A590304D545
:105870001148154913F0ABFC22200D4CA36A9A0382
:1058800004D50D48114913F0A2FC2320A36ADB03C1
:1058900004D509480E4913F09AFC2420044A936A5F
:1058A0006FEA03436FEA1343936210BD1D20CBE7F9
:1058B00000ED00E095690260803D0260AD69026024
:1058C000C0690260DA690260F86902601D6A0260FC
:1058D000376A02602DE9F843364D804689463648DE
:1058E0003649174613F073FCAB6ADE0627D5112440
:1058F0003349314813F06BFCAB6A1D0704D5122401
:1059000030492D4813F063FC2A4DAB6A980718D52F
:105910002D49294813F05BFC6E6BAB6A190646D51E
:105920002A4A33460121244813F022FAB9F1000F24
:1059300003D0AB6A23F08003AB62132403E010248E
:10594000DAE76FF015061B4DAB6ADA0704D51424AD
:105950001F49194813F03BFCAB6A9B0604D515247C
:105960001C49154813F033FC124B9A6AD50602D431
:105970009A6A90070AD55B68190507D541463046F3
:1059800000F018FA10B180F309880224094B9A6AD2
:10599000920603D55A6A22F400525A629A6A204645
:1059A00042F0FF029A6200233B70BDE8F8836FF07B
:1059B0001506C2E700ED00E0803D0260626A026009
:1059C000786A0260F2680260AB6A0260C36A0260D1
:1059D000D96A0260666902602DE9F041664B8AB0BF
:1059E00004460026D3F8048000AFC8F3080586F308
:1059F0001188BFF36F8F02F07F43B3F17F4F07D160
:105A000002F00C03082B12D15C495D4813F0DFFB58
:105A1000002634460023FB71EB1E092B00F28B801D
:105A2000DFE803F00A81847E8989898989871007E4
:105A30004CBF0C460126EDE75249514813F0C7FB15
:105A40004D4D0023FB71EB6A9A0705D54E494C4832
:105A500013F0BDFB002333E0EB6A002B01DA4B4966
:105A6000F5E7EB6A5B00F5D54949454813F0AFFB14
:105A70006B69A26943F480736B61BFF34F8FBFF30F
:105A80006F8F6B6932F8022C23F480736B61BFF364
:105A90004F8FBFF36F8F4DF602739A4209D0AB6AF6
:105AA000DBB283B3FA1D01212046FFF713FF034643
:105AB00006E02368374A0121314813F059F9236879
:105AC000FA79E2B907F1080504F1200C20680834DE
:105AD00054F8041C2A46644503C21546F6D17A6A76
:105AE000002E44D0C2F3080121B96FEA52226FEAB6
:105AF00042227A6207F108011846FFF79BFD28371A
:105B0000BD46BDE8F081AB6A13F47F4F04D0F91DA8
:105B10000120FFF723FECAE7AB6AB3F5803F99D3B4
:105B2000FFF784FEC3E7FA1D0021BDE7F91D002041
:105B3000EFE719498BE718F4F87F184AE8468AB06E
:105B4000174B18BF13466A461649103DC2E90513A4
:105B50004FF40073D5611384134B42F8103F0023B8
:105B60004FF411510648FEF79DF8C54672E722F43E
:105B7000FF7222F00102BCE700ED00E0266B02603C
:105B8000803D0260516B0260686B0260896B02604D
:105B9000976B0260B66B0260D26B02600D6B0260A5
:105BA000F86A0260F66B026004000001024A536961
:105BB00043F010035361704700ED00E0EFF30880FD
:105BC000EFF3098101B57246FFF706FF01BD00BF83
:105BD000FDF7C6FD102080F3118808484FF40461DA
:105BE000401880F30988EFF314800221084380F302
:105BF0001488BFF36F8F00F0A3F800004011292034
:105C0000084B9B6883420BD1EFF3058343B1064BEE
:105C10005A6842F080525A605A6A22F400425A622C
:105C20001DF026BB8CC3282000ED00E0094A6FF070
:105C30000A0193689967084958674B6843F0805395
:105C40004B60002383F31188BFF36F8F9368986FC5
:105C5000704700BF8CC3282000ED00E010B504465B
:105C6000EFF31183102383F31288BFF36F8F0A4B76
:105C70004FF0006258699860084B5A60084B026FF9
:105C80001A600022436F426783F31188BFF36F8F5E
:105C900000F040F9204610BD8CC3282000ED00E044
:105CA00098BA28200B498A684FF030001044EFF36F
:105CB000098C80E8F01F74467046FFF7CFFFA646B8
:105CC00004498A6802F1300090E8F01F8CF30988DB
:105CD000704700008CC328201EF0040F0CBFEFF3A8
:105CE0000880EFF30980816911F8021C0229FFD0B6
:105CF00001B513F061FA01BD00B2002807DB0123F2
:105D0000410900F01F00024A834042F821307047E9
:105D100000E100E000B2013100284FEA0111C9B2F0
:105D200006DB00F1604000F5614080F80013704729
:105D300000F00F00014B1954704700BF14ED00E054
:105D40000F4A08B522F07F020E4B9A60BFF34F8FC7
:105D5000BFF36F8FD3F8882022F47002C3F8882035
:105D6000EFF3148323F0040383F31488BFF36F8FDE
:105D700010F028FC11F0F0FB00F05AF810F070FC65
:105D80000020006000ED00E042F8203C203A009B3B
:105D900007495360019B21F001019360029B9161CF
:105DA000D3604FF08073D36100230265436770476F
:105DB0002D360060094A0346906870B113F1160F42
:105DC000006E05D0A0F140029A4205D8834203D26A
:105DD000814228BF00207047002070478CC32820D4
:105DE00015460C4A0E4608B50B4B9060026F1A60C0
:105DF00000F090F82C4686F309884FF00000074B1E
:105E0000984720464FF000014FF000024FF000038A
:105E1000034C20478CC3282098BA2820DF910160CA
:105E20002D360060014B10221A61704700ED00E032
:105E3000002304481021C2180133A02B82F800135C
:105E4000F9D1704700E100E008B5EFF30583064A99
:105E5000103B02EBC30152F8330049688847BDE8A4
:105E60000840FFF767BC00BFF4370260154A70B501
:105E7000536913F4803323D1C2F88430BFF34F8FBA
:105E8000D2F8803043F6E074C3F3C900C3F34E3355
:105E90005B0103EA0406014646EA81750139C2F84E
:105EA0006052F9D2203B13F1200FF2D1BFF34F8F94
:105EB000536943F480335361BFF34F8FBFF36F8F48
:105EC00070BD00BF00ED00E00B4B5A6912F40032C8
:105ED00011D1BFF34F8FBFF36F8FC3F85022BFF3C1
:105EE0004F8FBFF36F8F5A6942F400325A61BFF38C
:105EF0004F8FBFF36F8F704700ED00E0024B022120
:105F0000024A034800F08AB800002C200000282034
:105F1000103F0260026E4021044B403A18461A605E
:105F2000034AC3E90112012100F082B89CBA28207B
:105F300000000B1508B503461048D0F89020C2F3B6
:105F40000722013A934207D90D4801210D4A12F068
:105F50000FFF6FF0150008BDC0F898300A6822F0F6
:105F60001F021A4342F01002C0F89C208A6842F0D7
:105F70000102C0F8A0201846EDE700BF00ED00E0E8
:105F8000783D02600D6C0260F0B50E4685B01F468C
:105F900004460025B5420DDA606810B397B1431E80
:105FA00018420AD0104A2B460121104812F0E0FE98
:105FB0006FF01502104605B0F0BD1F28F2D9216818
:105FC0000B42EFD1236801A9019313F01CF9A368D8
:105FD0000343D0B20393FFF7ADFF10F1160FE7D0E4
:105FE000421C01350C34D5E7336C0260783D026009
:105FF000044B0522C3F89420BFF34F8FBFF36F8F7C
:10600000704700BF00ED00E0BFF35F8F024B00223E
:10601000C3F89420704700BF00ED00E010B5034CBA
:1060200001232278FFF7B0FF207010BDFDC32820A8
:106030000B4A08B500231278FFF7A6FF10F1160FE0
:1060400007D0084A0021D2F89030C3F307239842C2
:1060500000DB08BDC2F898000130C2F8A010F2E7DA
:10606000FDC3282000ED00E06A496B482DE9F043AC
:10607000D1F8903085B00268C3F307239A4200F24A
:10608000C580FFF7C1FF4B69DB031ED50023C1F8B4
:106090008430BFF34F8FD1F8803043F6E075C3F3FF
:1060A000C904C3F34E335B0103EA0507224647EAFE
:1060B0008276013AC1F87462F9D2203B13F1200FC5
:1060C000F2D1BFF34F8FBFF36F8FD0E900410022B1
:1060D0005048A24201F10C011AD1504C68460025EB
:1060E0004F4F2270FEF79CF8DFF838810646DFF844
:1060F0003891AE421FD1237800204649D1F8902034
:10610000C2F3072293427BDB0020FFF771FF4CE0D4
:10611000C0F8982051F80C3C23F01F0313430132C0
:1061200043F01003C0F89C3051F8043C43F00103E5
:10613000C0F8A030CDE700984FEA051C00EB051130
:10614000CB683B40B3F5000F44D00AD8B3F5001F2D
:106150002ED0B3F5800F34D0B3F5801F10D00135A9
:10616000C7E7B3F1807F3ED0B3F1007FF7D150F89D
:106170000C30886813F047F84A6840F4802009E042
:1061800050F80C30886813F03EF840F088504A68A8
:1061900040F43020039001A92078CDE90123FFF7D6
:1061A000C9FE002828DA6FF0150005B0BDE8F083BD
:1061B00050F80C30886813F026F84A6840EA080066
:1061C000E8E750F80C30886813F01DF84A6840EA98
:1061D0000900DFE750F80C30886813F014F84A68BB
:1061E00040F08270D6E750F80C30886813F00BF856
:1061F0004A6840F08870CDE7237801332370AEE71A
:10620000C1F898300133C1F8A00077E74FF0FF30B4
:10621000CBE700BF00ED00E0103E0260FDC3282088
:106220000000F0FF000008110000020708B5024B53
:106230001B689847002008BDA8BA2820034B044AD1
:106240001860937843F0020393707047A8BA28202F
:1062500018832820F0B587B007460E461446002163
:10626000102268461D461DF05EF902232A4621468B
:106270008DF802306846044BCDE90476019311F0A5
:1062800073FC07B0F0BD00BF2792016006490748C4
:1062900021F00701C1F1005208B502F5301212F0E9
:1062A00021F9002008BD00BF3F392920ACBA2820C1
:1062B000F0B5114D85B0114E114F4FF0FF334FF037
:1062C000FF3201A9284610F097FA034688B1012150
:1062D0003A460C4812F04CFDEFE7236813B1019ADF
:1062E000934202D1636801A898470834B442F4D3BA
:1062F000E3E7054CFAE700BF80852820E03D026017
:10630000566C0260483D0260D03D02601FB50190AE
:106310009DF818008DF809108DF80800ADF80A20D6
:106320000393DDE9082301A9024810F015FA05B02E
:106330005DF804FB80852820014814F088BA00BF6E
:106340004087282010B58AB000220023002412497B
:10635000CDE906236FF00D034FF4806201F58860EC
:106360000094CDE90334CDE901440C4B10F08AFDD3
:106370000B490C481CF081FE09AA21460A4813F07B
:10638000E7FA002805DB099B22461979186813F003
:10639000F2FA0AB010BD00BF40882820AD6300604B
:1063A0006B6C0260808C2820283F02602DE9F04150
:1063B000774D86B0774C4FF0FF324FF0FF3303A993
:1063C000284610F019FA9DF81420A2F11003052BAD
:1063D0007DD8DFE803F00372777C7C6D0022E368F0
:1063E0000E21A06884F8D4205B69984720B16A4ADE
:1063F00001216A4812F022FF0023D4F8DC201A445D
:10640000917D6FF341019175D4F8DC201A44183363
:10641000917DB3F5C07F6FF300019175EDD100223E
:1064200040230221A0688DF80820D4F8DC200193D5
:10643000938201AAE3685B69984720B1584A012119
:10644000564812F0FBFED4F8DC300221A0689A7D99
:106450006FF341029A75D4F8DC20937D43F0010379
:106460009375802340228DF80630D4F8DC309A856D
:1064700001AAE3685B69984720B14A4A012147486D
:1064800012F0DCFED4F8DC300021012093F82E203D
:106490006FF3410283F82E20D4F8DC2092F82E30DE
:1064A00043F0010382F82E30D4F8D830984782E7C1
:1064B0000021D4F8D8300846F8E7D4F8D8300021C5
:1064C0000520F3E7D4F8D83000210620EEE7D30901
:1064D00003EB420303F0FF030F2B07D9324A0121DC
:1064E0002E4812F0ABFE06B0BDE8F081D4F8DC70A7
:1064F00003EB430303AA07EBC30603CA47F83300C1
:1065000071601068B060D4F8DC0000EBC302167A4A
:10651000F10901EB460101F0FF07C9B201EB4101AE
:1065200000EBC1034FEAC108997D6FF341019975F2
:10653000536801333FF43FAF537AF3B933061ED5A6
:1065400094F8D43083B1012F0ED1E3680821174AA3
:106550005B69A068984728B1154A39460F4812F080
:106560006DFE28E784F8D4000221D4F8DC304344DF
:106570001B6933B1304698471DE70021F5E701213B
:10658000F3E70C4A33460121044812F0F1FB12E70D
:10659000F885282040872820746C0260A03D0260A6
:1065A000916C0260BB6C0260E46C0260148828206D
:1065B000016D02601E6D026038B5164C164BC4F8B2
:1065C000DC3094F8E03033B1144A0221144812F060
:1065D00035FE002038BD134B04F10802214602208D
:1065E000E36002F07BFD054688B902460121712077
:1065F000FFF790FB7120FFF77FFB01232A46294616
:1066000084F8E030E368A0685B699847E1E76FF0E1
:106610000400DFE740872820B8BA2820406D0260D8
:10662000A03D0260303F0260094B142110B5DA68CA
:1066300083F8D4009868546903F1D402A04730B1BC
:1066400004480121044A12F0F9FD6FF0150010BD55
:1066500040872820A03D0260016D026008B50378E4
:10666000017903F07F02DB0903EB4203DBB241B99E
:106670003AB1074A0748012112F0E0FD4FF0FF3020
:1066800008BD0F2B01D9044AF4E70020F8E700BF4A
:10669000516D0260A03D0260706D0260F0B502783D
:1066A00085B0424D0446D3098DF80A20D5F8DC6048
:1066B00003EB420303F0FF01DBB203EB43030F29BB
:1066C0004FEAC30706EBC3064FF000038DF80C300A
:1066D0004388ADF8083003798DF80B3008D9344879
:1066E0000121344A12F0AAFD6FF0150005B0F0BD8B
:1066F000B37DD90706D5304A02212D4812F09EFD00
:106700000020F3E7EB6803218DF807200DF1070265
:106710005B69A8689847034620B1284A02212448AB
:1067200012F026FBF16821B125481CF0EEFB002396
:10673000F36000220023618821481CF0DCFBF0603C
:1067400038B91B4801211F4A12F078FD6FF00B0089
:10675000CCE7628800211CF0E6FED5F8DC306288C8
:1067600002213B44A8689A8202AAEB685B699847B9
:1067700038B10F480121144A12F060FD6FF0040097
:10678000B4E723785A0608D11B0606D4D5F8DC30C6
:106790003B449A7D42F002029A75D5F8DC303B44C6
:1067A0009A7D42F001029A75AAE700BF408728202F
:1067B000A03D0260E46C0260946D0260B06D026006
:1067C00058852820DD6D0260F76D0260C30903EB78
:1067D000400303F0FF030F2B13B58DF8070008D912
:1067E0000D4801210D4A12F029FD6FF0150002B08D
:1067F00010BD0B4B0421DA68986854690DF107024B
:10680000A0470028F3D004480121064A12F016FDE3
:106810006FF00400EBE700BFA03D0260E46C026093
:1068200040872820156E0260F7B5C40905468DF82B
:10683000070004EB400404F0FF040F2C08D91F48A4
:1068400001211F4A12F0FAFC6FF0150003B0F0BDF1
:106850001C4E0DF107020521F368B0685B6998478B
:1068600038B1194A0121154812F0E8FC6FF0040014
:10687000ECE76A0601D10020E8E72B06FBD404EB25
:106880004404D6F8DC20F368294602EBC402B06861
:10689000E700DC68938AD268A04730B10B4A2B46E8
:1068A0000121064812F064FAE0E7D6F8DC303B44F8
:1068B0009A7D42F002029A75DDE700BFA03D0260BA
:1068C000E46C0260408728202E6E0260446E0260F5
:1068D000C30903EB400303F0FF030F2B37B50C464E
:1068E00008D9124A0121124812F0A8FC6FF01500D5
:1068F00003B030BD0029F9D000238DF804000B70DF
:106900000721ADF806300B4BDA689868556901AA83
:10691000A84738B106480121074A12F08FFC6FF0F2
:106920000400E5E7BDF806302370E1E7E46C02609F
:10693000A03D026040872820696E0260C20902EB18
:10694000400212F0FF02F8B5044639D00F2A07D9E9
:106950001F4801211F4A12F071FC6FF01500F8BDAD
:106960001D4D02EB4202D5F8DC30D60003EBC2022B
:10697000937D980708D516482346184A022112F03D
:10698000F7F96FF07700EAE761061BD0230619D408
:10699000EB682146A868DF68938AD268B84740B19F
:1069A0000B4823460E4A012112F0E2F96FF0040071
:1069B000D5E7D5F8DC3033449A7D42F002029A756F
:1069C0000020CCE7937D43F002039375F8E700BF06
:1069D000A03D0260E46C026040872820876E026060
:1069E000446E026070B5C409054604EB400404F02F
:1069F000FF040F2C07D916480121164A12F01EFC7D
:106A00006FF0150070BD144EB06868B1F368294688
:106A10001B69984740B10E482B46104A012112F0DD
:106A2000A7F96FF00400EDE7D6F8DC3004EB44047E
:106A3000002003EBC4039A7D6FF300029A75D6F829
:106A4000DC3003EBC4039A7D6FF341029A75D9E7FA
:106A5000A03D0260E46C026040872820A56E0260C1
:106A60002DE9F04105461E461046EC0904EB4504AD
:106A700004F0FF040F2C08D91A4A1B48012112F018
:106A8000DDFB6FF01500BDE8F0812B0601D4174A3D
:106A9000F3E7174F04EB4404D7F8DC3003EBC403EF
:106AA0009C8ADA68844228BF04460020844210D1C0
:106AB000FB682946B868D3F808802346C04760B110
:106AC00009482B460B4A012112F052F96FF00400DD
:106AD000D9E70B5C13540130E8E70EB90020D2E788
:106AE0003460FBE7E46C0260A03D0260C16E0260AE
:106AF00040872820DA6E02602DE9F047C4090F466E
:106B0000DFF8EC90984604EB40041546D9F8DC30E9
:106B1000064604F0FF01E4B204EB4404E20003EB98
:106B2000C404A07D800708D532480121324A12F002
:106B300085FB6FF00F00BDE8F0870F2901D8300604
:106B400007D52E4A01212B4812F078FB6FF0150073
:106B5000F1E717B96DB12A4AF4E753F802A0636868
:106B6000591C10D1B8F1000FF0D00023C8F8003044
:106B7000ECE763685A1CF5D0B8F1000F01D0C8F8F3
:106B800000300020D7E7AB4205D91E4A0221194840
:106B900012F054FB2B4600229A4211D1B8F1000F9B
:106BA00001D0C8F80030002EEBD1D9F8DC20507AA3
:106BB000116890B1CB8843B9002389F8E130E0E750
:106BC0001AF80210B9540132E6E791F90030002BAF
:106BD00001DA0123F1E70223EFE799F8E110002938
:106BE000CFD0AB42E8D2928A9342E5D3C9E700BF47
:106BF00040872820A03D0260FA6E0260216F02608B
:106C0000486F0260586F0260F8B5C309044603EB91
:106C1000400303F0FF030F2B01D8020607D51F48DE
:106C200001211F4A12F00AFB6FF01500F8BD1D4D3F
:106C300003EB4303D5F8DC20DE0002EBC302937DB7
:106C40009B0708D5184A03460221144812F090F811
:106C50006FF00F00EAE730B995F8E130DBB1012BB6
:106C600008BF85F8E100EB682146A868DF68938AD1
:106C7000D268B84740B1094823460C4A012112F0B6
:106C800077F86FF00400D1E7D5F8DC3033449A7D13
:106C900042F002029A750020C8E700BFA03D0260E2
:106CA000216F0260408728207E6F02609D6F026026
:106CB00008B5C30903EB400000F0FF000F2807D917
:106CC0000A4A01210A4812F0B9FA6FF0150008BD0E
:106CD000084B93F8E020002AF7D000EB4000D3F8EF
:106CE000DC3003EBC00300201961F0E7E46C0260C4
:106CF000A03D026040872820014BC3F8D8007047B0
:106D00004087282008B5C30903EB400000F0FF00CE
:106D10000F2807D908480121084A12F08FFA6FF0AE
:106D2000150008BD064B00EB4000D3F8DC3003EB48
:106D3000C003988AF5E700BFA03D0260E46C0260E2
:106D40004087282008B50022002302480FF004FDE8
:106D5000002008BDF8852820B1F5A06F38B514468D
:106D600013D0B1F5706F32D0B1F5407F2BD11A4DF1
:106D70006B6A5A0619D4194801F066F96B6A062243
:106D800003F03F03B0FBF2F00AE0134D144AAB6985
:106D9000C3F30113D05C01F02BFBAB69C3F3826337
:106DA0000133B0FBF3F020600DE00E4BD3F87032EE
:106DB000DB060AD40C4B1A686B6A03F03F030133FD
:106DC000B2FBF3F22260002038BD084AF4E702204B
:106DD00001F088FBE7E700BF00C00F400D00100086
:106DE000EC6F026000800D40C0BC282000366E01B0
:106DF00008B507481CF006F838B10648FFF71EFA38
:106E00000448FCF70DFC002008BD6FF01200FBE702
:106E100078360260196E00600A2838B50446074DBE
:106E200004D1AB680D2128465B689847AB68E1B296
:106E300002485B689847204638BD00BF783602603C
:106E400008B5044A0221044811F089FF6FF085005B
:106E500008BD00BFF06F0260903D0260F0B585B0E4
:106E600004460A216FF00103456800AF686C80FB9F
:106E70000101181A4FF0FF3363EB010110F0B2FA71
:106E8000636820469B6A98470646D8B92B6B204614
:106E900098476C4688B06A465F4BC2E905304FF4AC
:106EA000007393835D4B42F8103F4FF4E251334639
:106EB0005B486FF01505FCF7F5FEA546284614372C
:106EC000BD46F0BD2B6ADBB96568A42223693A711F
:106ED00095F84020002A15BFA721A62104220222EE
:106EE00079711A702B6A93B9204612F0D7F900B362
:106EF0004C4A01214A486FF0040511F030FFDDE7EC
:106F000005F1200012F013FA051EDDDAD6E7203570
:106F100000210A2010F066FA0121284612F022FA18
:106F200000210A2010F05EFA0021284612F01AFA19
:106F3000DAE748F2D502636807F1080120463A8192
:106F4000D922BA72062293F83C30FB7242F2DB037C
:106F5000BB81012312F090F90028C9D163684DF27A
:106F6000403207F1080120463A8193F83A20BA727C
:106F7000DA22FA7293F83F20002A0CBF1222022272
:106F80003A73A8227A73072293F83B30BB7301232C
:106F900012F072F90028ABD1626807F108012046AF
:106FA00092F83D30603B3B7292F83E300222002B5B
:106FB0000CBFC023C8237B72012312F05DF90028A7
:106FC00096D1636807F10801204693F84130002B01
:106FD00015BF8B231423AD228D227B7233233A728B
:106FE0000322BB72012312F047F9002880D101234C
:106FF0000222391D204612F03FF900287FF478AFB5
:107000008021204612F056F9054600287FF470AF23
:10701000204612F037F951E70970026003000001C1
:10702000903D0260227002602DE9F347B3F808C07A
:107030000646B3F804901C460A9FCC45D0F804A03D
:1070400009D2404A0121404811F089FE4FF0FF303B
:1070500002B0BDE8F087B3F806E01B680EFB09F547
:10706000ED109D4228BF1D4607B10DB9374AE9E72B
:10707000CC4501D9364AE5E712F0070C01D0354A74
:10708000E0E7CBB29AF84110C2F3C708A1B39AF86F
:107090003810B946E246194401F00F03C1F3031159
:1070A00041F010018DF800308DF801105FFA8AF37D
:1070B000E288B3EBD20F01D30020C9E74344032297
:1070C0006946304663F04F038DF80230012312F019
:1070D000D3F803460028B9D1A2884946304612F0B9
:1070E000CBF80028B2D1A3880AF1010A99447B1990
:1070F0009945DBD9184AA5E78DF80330013B2021DB
:107100008DF806804B44ADF8001021218DF8043035
:1071100022238DF8021069468DF8053002EB0E032C
:107120000822DB10013B8DF80730012312F0A4F890
:10713000034608B1094A85E72A463946304612F027
:107140009BF885E73F700260903D02605B700260D3
:107150007B7002608C7002609F700260B67002608B
:1071600073B51A4C0829D4F8306428BF0821D4F824
:107170003054D4F83024D4F830342D0A12021B06CF
:1071800005F47F4502F47F0243EA16632B43134361
:107190000093D4F82064D4F82054D4F82024D4F8F0
:1071A00020342C0A1B0604F47F4443EA166323436D
:1071B00014020A4604F47F0423430C4669460193F3
:1071C0001CF089F9204602B070BD00BF00401F408E
:1071D00003462DE9F04153F8185D044686B069680E
:1071E000CA689B1A184A1B1153438A68D618D0588C
:1071F0003779D0F81080836805A95B68984748B94B
:10720000059BD8F800205A400123BB401A4214BF06
:107210000120002014F9083C834211D004F8080C26
:10722000031E32894FF0FF374FF0FF364FF0010158
:1072300018BF012328460091CDE90267FFF766F8E1
:1072400006B0BDE8F08100BF9C9999992DE9F04FF7
:1072500087B04FF000094FF0010B466802AFF568A8
:10726000F8601835BD6073684B4505DC337D002B35
:1072700040F09780002423E00C23D6F808A003FBFD
:1072800009F80AEB08045AF808001BF0BBFD034696
:10729000D8B95AF808206C4688B0116802AA454847
:1072A000C2E905014FF400719183434942F8101F70
:1072B0004FF4E2514148FCF7F5FCA5466FF012048B
:1072C00020461437BD46BDE8F08FE3885AF8080021
:1072D000217943F48032046913F0010F0BFA01FCA9
:1072E000D0F808E0236814BF4CEA030323EA0C0338
:1072F0002360DEF800309847044638B1304A4B46E8
:10730000009001212D4811F03DFDD9E7FB6828468A
:1073100045F8183C31691BF09EFE337D002B3CD1B3
:10732000D6F808A0A5F114010AEB08031A797B60CE
:107330000BFA02F2234B45E904325AF8080082683E
:10734000D4696CB10122A047041E7B680BDA1E4A87
:1073500001211A4811F003FD1C4A4B460094D0E766
:107360006FF05704F3E7FF2205F8082C5AF80800DD
:10737000197983689C696CB14FF0C0634FF0A072BB
:10738000A047041E09DA124A234601210B4811F0D6
:10739000EFFCE1E76FF05704F5E709F1010950351B
:1073A00061E732680A23B868A2FB03230FF016FDD9
:1073B00060E700BF5E71026003000001403D0260B3
:1073C0006E7102602B9701608E710260AA7102607B
:1073D000B171026000292DE9F7430CBF4FF400168C
:1073E0004FF0E8660546002400F1040806F0C06985
:1073F00055F8340018F8341083689F6977B14B460C
:1074000006F0B072B84760B1084A234600900121E7
:10741000074811F0B7FC03B0BDE8F0836FF05700E8
:10742000F2E7002CF7D10124E2E700BFAA71026065
:10743000503D02602DE9F04100AFD0F83480D8F81B
:1074400010404046D8F8046012F0EAF994F8403051
:10745000054683425AD0D8F804301B6A4BB1BFF3BB
:107460005B8FD4F89430BFF35B8F13B9404612F0B2
:1074700042FA94F8403045EA0313202B4FD048DC01
:10748000102B04D006DC012B1CD0022B04D14FF0B2
:10749000FF3317E0132B42D0D8F80030E84688B00D
:1074A0006A462049C2E905134FF4007393831E4BCB
:1074B00042F8103F00234FF4E4511C48FCF7F2FB64
:1074C0000023C54684F84050EFF31181102282F367
:1074D0001288BFF36F8F626C1A44626481F3118863
:1074E000BFF36F8F636C96F82A20002BB8BF5B4206
:1074F000934203DB04F148000FF0CEFB736A0A22CB
:1075000004F15800A3FB02230FF068FCBD46BDE860
:10751000F081312BBBD0322B01D0232BB6E70123D6
:10752000D0E700BFDE71026003000001503D026041
:107530002DE9F04F83B0044655490669D0F8048020
:1075400002AF304640F8484B1BF059FD06F1580099
:1075500050491BF080FD00224F4906F108001BF046
:107560002BFF0122F46398F8043006F1880B98F899
:107570000C104FF0000902FA03F38A401343474A04
:10758000C6E9232308EBC90558F839001BF03AFC7B
:107590000346D0B958F839206C4688B0116802AA61
:1075A0003F48C2E905014FF4007191833D4942F81B
:1075B000101F4FF4E2513C48FCF774FB6FF01205CA
:1075C000A54610E04FF00109DCE728464FF4803172
:1075D00012F0B6F8054658B1344A4B4600900121E6
:1075E000314811F0CFFB28460437BD46BDE8F08F87
:1075F00063681B6AA3B958F839008368DB6963B113
:10760000012259469847B0F1000A09DA284A0121B7
:10761000254811F0A4FB5546E5E76FF0570AF5E75A
:10762000B9F1000FCED04FF0000998F814304B4557
:1076300008DC204612F0F4F886F84000204612F0EC
:1076400027F9D0E7D8F810B00BEBC90A5BF839007E
:107650001BF0D8FB034610B95BF839209CE7636840
:1076600050461B6A002B0CBF4FF4D0114FF4B011E1
:1076700012F066F8824638B10C4A4B460090012160
:10768000094811F07FFBC6E709F10109CDE700BF0A
:10769000AB970160EF980160357400604599016017
:1076A0005E71026003000001503D02606E71026075
:1076B0008E710260124B03F1780252E8002F42F003
:1076C0000C0203F1780040E800210029F3D103F116
:1076D000700252E8002F42F0300203F1700040E8DF
:1076E00000210029F3D103F1780252E8002F42F083
:1076F000300203F1780141E800200028F3D17047FF
:1077000000C00F4010B50469064920663034204699
:107710001BF0A1FC42F21072002320460FF02AFB5E
:10772000002010BD2977006038B5036B42F210725B
:107730001C6900230FF01EFBEFF31185102383F368
:107740001288BFF36F8F636801333B2B05DC6360E6
:1077500085F31188BFF36F8F38BDA3680022013312
:1077600062603B2B01DCA360F2E7E368A2600133B7
:10777000172B01DCE360EBE7E3694FF4C871E260CB
:107780000133226A2069072B02F1010200F1010096
:10779000A8BF002322622061E361A36993FBF1F299
:1077A00001FB1232EAB1642193FBF1F201FB1232C8
:1077B000002A18DD13F0030F0C4A0D4908BF1146CB
:1077C0006269895C8842C3DD01210A4421610B2A78
:1077D000C5BF0022013362616261C4BF2262A3613E
:1077E000B6E70249ECE70249EAE700BF017202602E
:1077F0000D7202602DE9F04F83B006464FF001098B
:10780000D0F80480D0F810A000AFD8F80C3098471A
:10781000DAF84450DAE9113203EBC2039D421AD37D
:107820000AF13C05284612F07DFBCAF800603A1DBB
:107830000021D8F81C0012F08BF8041E28DB7B68AE
:1078400000221979186812F096F8044600BB284601
:1078500012F068FB1CE028681BF0D4FA0346E0B97C
:107860002A686C468AB0297910686A46D1614FF45B
:1078700000711A4D11841A49C2E9055042F8101FCF
:107880004FF411511748FCF70DFAA5466FF012049A
:1078900020460C37BD46BDE8F08F28682979EB8873
:1078A000DA07046909FA01FBD0F808C054BF43F4B1
:1078B000B01383F4D013D4F800E023F48012DB0774
:1078C0004CBF4EEA0B032EEA0B032360DCF80030BA
:1078D0009847041EDCDB08359CE700BF3872026065
:1078E00004000001883D0260F0B585B006460469D9
:1078F000436800AFD4F88C201868D4F88430E56B66
:10790000CBB94ABB6DB1AB685BB1A98811F48056A5
:1079100007D128691BF066FAE06B3146083012F097
:10792000EDFA0023E36604F15C000FF071F800202B
:107930001437BD46F0BDE988090141F48011F960B2
:10794000D4F88010002A38D0D4F888509342C7E980
:10795000001534D033D908E0E9883B600901D4F838
:10796000883041F480117B60F960BA60BB68211DEA
:107970003A46C4F8903000F0B5FF04460028D6D04F
:107980006D468AB033686A460E49D061C2E9051374
:107990004FF4007313840C4B42F8103F0B48002344
:1079A0004FF41151FCF77EF9B4F5C87FAD4614BF12
:1079B0006FF015006FF00F00BAE7C7E90012BB6067
:1079C000D4E700BF5C72026004000001883D0260E1
:1079D00010B51C46D3F89020D3F8843033B19A42C6
:1079E00013D9274A0121274811F0B9F9D4E92332E4
:1079F00033B19A4226D9224A0121224811F0AFF927
:107A00002068BDE81040FFF76FBF9B1AC4F88430B0
:107A100083B9236F04F1840204F1740104F170004E
:107A200008332367636F013B636712F054FAC4F8AD
:107A30008000DBE7D4F88030002BD7D01344C4F8A3
:107A40008030D3E79B1AC4F88C3083B9A36F04F15C
:107A50008C0204F17C0104F178000833A367E36F22
:107A6000013BE36712F037FAC4F88800C8E7D4F89E
:107A70008830002BC4D01344C4F88830C0E700BF5E
:107A80007F720260883D02602DE9F04F98468B8836
